{
    "abi": [
        {
            "type": "constructor",
            "inputs": [
                {
                    "name": "_name",
                    "type": "string",
                    "internalType": "string"
                },
                {
                    "name": "_symbol",
                    "type": "string",
                    "internalType": "string"
                },
                {
                    "name": "initialOwner",
                    "type": "address",
                    "internalType": "address"
                }
            ],
            "stateMutability": "nonpayable"
        },
        {
            "type": "function",
            "name": "approve",
            "inputs": [
                {
                    "name": "to",
                    "type": "address",
                    "internalType": "address"
                },
                {
                    "name": "tokenId",
                    "type": "uint256",
                    "internalType": "uint256"
                }
            ],
            "outputs": [],
            "stateMutability": "nonpayable"
        },
        {
            "type": "function",
            "name": "balanceOf",
            "inputs": [
                {
                    "name": "owner",
                    "type": "address",
                    "internalType": "address"
                }
            ],
            "outputs": [
                {
                    "name": "",
                    "type": "uint256",
                    "internalType": "uint256"
                }
            ],
            "stateMutability": "view"
        },
        {
            "type": "function",
            "name": "currentTokenId",
            "inputs": [],
            "outputs": [
                {
                    "name": "",
                    "type": "uint256",
                    "internalType": "uint256"
                }
            ],
            "stateMutability": "view"
        },
        {
            "type": "function",
            "name": "getApproved",
            "inputs": [
                {
                    "name": "tokenId",
                    "type": "uint256",
                    "internalType": "uint256"
                }
            ],
            "outputs": [
                {
                    "name": "",
                    "type": "address",
                    "internalType": "address"
                }
            ],
            "stateMutability": "view"
        },
        {
            "type": "function",
            "name": "isApprovedForAll",
            "inputs": [
                {
                    "name": "owner",
                    "type": "address",
                    "internalType": "address"
                },
                {
                    "name": "operator",
                    "type": "address",
                    "internalType": "address"
                }
            ],
            "outputs": [
                {
                    "name": "",
                    "type": "bool",
                    "internalType": "bool"
                }
            ],
            "stateMutability": "view"
        },
        {
            "type": "function",
            "name": "isWhitelisted",
            "inputs": [
                {
                    "name": "",
                    "type": "address",
                    "internalType": "address"
                }
            ],
            "outputs": [
                {
                    "name": "",
                    "type": "bool",
                    "internalType": "bool"
                }
            ],
            "stateMutability": "view"
        },
        {
            "type": "function",
            "name": "mintTo",
            "inputs": [
                {
                    "name": "recipient",
                    "type": "address",
                    "internalType": "address"
                },
                {
                    "name": "x_id",
                    "type": "uint256",
                    "internalType": "uint256"
                },
                {
                    "name": "policy",
                    "type": "string",
                    "internalType": "string"
                },
                {
                    "name": "username",
                    "type": "string",
                    "internalType": "string"
                },
                {
                    "name": "pfp",
                    "type": "string",
                    "internalType": "string"
                }
            ],
            "outputs": [
                {
                    "name": "",
                    "type": "uint256",
                    "internalType": "uint256"
                }
            ],
            "stateMutability": "nonpayable"
        },
        {
            "type": "function",
            "name": "name",
            "inputs": [],
            "outputs": [
                {
                    "name": "",
                    "type": "string",
                    "internalType": "string"
                }
            ],
            "stateMutability": "view"
        },
        {
            "type": "function",
            "name": "owner",
            "inputs": [],
            "outputs": [
                {
                    "name": "",
                    "type": "address",
                    "internalType": "address"
                }
            ],
            "stateMutability": "view"
        },
        {
            "type": "function",
            "name": "ownerOf",
            "inputs": [
                {
                    "name": "tokenId",
                    "type": "uint256",
                    "internalType": "uint256"
                }
            ],
            "outputs": [
                {
                    "name": "",
                    "type": "address",
                    "internalType": "address"
                }
            ],
            "stateMutability": "view"
        },
        {
            "type": "function",
            "name": "redeem",
            "inputs": [
                {
                    "name": "tokenId",
                    "type": "uint256",
                    "internalType": "uint256"
                },
                {
                    "name": "content",
                    "type": "string",
                    "internalType": "string"
                },
                {
                    "name": "tokenType",
                    "type": "uint8",
                    "internalType": "enum NFT.TokenType"
                }
            ],
            "outputs": [],
            "stateMutability": "nonpayable"
        },
        {
            "type": "function",
            "name": "removeMinter",
            "inputs": [
                {
                    "name": "minter",
                    "type": "address",
                    "internalType": "address"
                }
            ],
            "outputs": [],
            "stateMutability": "nonpayable"
        },
        {
            "type": "function",
            "name": "renounceOwnership",
            "inputs": [],
            "outputs": [],
            "stateMutability": "nonpayable"
        },
        {
            "type": "function",
            "name": "safeTransferFrom",
            "inputs": [
                {
                    "name": "from",
                    "type": "address",
                    "internalType": "address"
                },
                {
                    "name": "to",
                    "type": "address",
                    "internalType": "address"
                },
                {
                    "name": "tokenId",
                    "type": "uint256",
                    "internalType": "uint256"
                }
            ],
            "outputs": [],
            "stateMutability": "nonpayable"
        },
        {
            "type": "function",
            "name": "safeTransferFrom",
            "inputs": [
                {
                    "name": "from",
                    "type": "address",
                    "internalType": "address"
                },
                {
                    "name": "to",
                    "type": "address",
                    "internalType": "address"
                },
                {
                    "name": "tokenId",
                    "type": "uint256",
                    "internalType": "uint256"
                },
                {
                    "name": "data",
                    "type": "bytes",
                    "internalType": "bytes"
                }
            ],
            "outputs": [],
            "stateMutability": "nonpayable"
        },
        {
            "type": "function",
            "name": "setApprovalForAll",
            "inputs": [
                {
                    "name": "operator",
                    "type": "address",
                    "internalType": "address"
                },
                {
                    "name": "approved",
                    "type": "bool",
                    "internalType": "bool"
                }
            ],
            "outputs": [],
            "stateMutability": "nonpayable"
        },
        {
            "type": "function",
            "name": "supportsInterface",
            "inputs": [
                {
                    "name": "interfaceId",
                    "type": "bytes4",
                    "internalType": "bytes4"
                }
            ],
            "outputs": [
                {
                    "name": "",
                    "type": "bool",
                    "internalType": "bool"
                }
            ],
            "stateMutability": "view"
        },
        {
            "type": "function",
            "name": "symbol",
            "inputs": [],
            "outputs": [
                {
                    "name": "",
                    "type": "string",
                    "internalType": "string"
                }
            ],
            "stateMutability": "view"
        },
        {
            "type": "function",
            "name": "tokenURI",
            "inputs": [
                {
                    "name": "tokenId",
                    "type": "uint256",
                    "internalType": "uint256"
                }
            ],
            "outputs": [
                {
                    "name": "",
                    "type": "string",
                    "internalType": "string"
                }
            ],
            "stateMutability": "view"
        },
        {
            "type": "function",
            "name": "transferFrom",
            "inputs": [
                {
                    "name": "from",
                    "type": "address",
                    "internalType": "address"
                },
                {
                    "name": "to",
                    "type": "address",
                    "internalType": "address"
                },
                {
                    "name": "tokenId",
                    "type": "uint256",
                    "internalType": "uint256"
                }
            ],
            "outputs": [],
            "stateMutability": "nonpayable"
        },
        {
            "type": "function",
            "name": "transferOwnership",
            "inputs": [
                {
                    "name": "newOwner",
                    "type": "address",
                    "internalType": "address"
                }
            ],
            "outputs": [],
            "stateMutability": "nonpayable"
        },
        {
            "type": "function",
            "name": "whitelistMinter",
            "inputs": [
                {
                    "name": "minter",
                    "type": "address",
                    "internalType": "address"
                }
            ],
            "outputs": [],
            "stateMutability": "nonpayable"
        },
        {
            "type": "event",
            "name": "Approval",
            "inputs": [
                {
                    "name": "owner",
                    "type": "address",
                    "indexed": true,
                    "internalType": "address"
                },
                {
                    "name": "approved",
                    "type": "address",
                    "indexed": true,
                    "internalType": "address"
                },
                {
                    "name": "tokenId",
                    "type": "uint256",
                    "indexed": true,
                    "internalType": "uint256"
                }
            ],
            "anonymous": false
        },
        {
            "type": "event",
            "name": "ApprovalForAll",
            "inputs": [
                {
                    "name": "owner",
                    "type": "address",
                    "indexed": true,
                    "internalType": "address"
                },
                {
                    "name": "operator",
                    "type": "address",
                    "indexed": true,
                    "internalType": "address"
                },
                {
                    "name": "approved",
                    "type": "bool",
                    "indexed": false,
                    "internalType": "bool"
                }
            ],
            "anonymous": false
        },
        {
            "type": "event",
            "name": "NewTokenData",
            "inputs": [
                {
                    "name": "tokenId",
                    "type": "uint256",
                    "indexed": true,
                    "internalType": "uint256"
                },
                {
                    "name": "x_id",
                    "type": "uint256",
                    "indexed": true,
                    "internalType": "uint256"
                },
                {
                    "name": "to",
                    "type": "address",
                    "indexed": false,
                    "internalType": "address"
                },
                {
                    "name": "policy",
                    "type": "string",
                    "indexed": false,
                    "internalType": "string"
                }
            ],
            "anonymous": false
        },
        {
            "type": "event",
            "name": "OwnershipTransferred",
            "inputs": [
                {
                    "name": "previousOwner",
                    "type": "address",
                    "indexed": true,
                    "internalType": "address"
                },
                {
                    "name": "newOwner",
                    "type": "address",
                    "indexed": true,
                    "internalType": "address"
                }
            ],
            "anonymous": false
        },
        {
            "type": "event",
            "name": "RedeemLike",
            "inputs": [
                {
                    "name": "tokenId",
                    "type": "uint256",
                    "indexed": true,
                    "internalType": "uint256"
                },
                {
                    "name": "x_id",
                    "type": "uint256",
                    "indexed": true,
                    "internalType": "uint256"
                },
                {
                    "name": "policy",
                    "type": "string",
                    "indexed": false,
                    "internalType": "string"
                },
                {
                    "name": "tweetId",
                    "type": "string",
                    "indexed": false,
                    "internalType": "string"
                }
            ],
            "anonymous": false
        },
        {
            "type": "event",
            "name": "RedeemTweet",
            "inputs": [
                {
                    "name": "tokenId",
                    "type": "uint256",
                    "indexed": true,
                    "internalType": "uint256"
                },
                {
                    "name": "x_id",
                    "type": "uint256",
                    "indexed": true,
                    "internalType": "uint256"
                },
                {
                    "name": "policy",
                    "type": "string",
                    "indexed": false,
                    "internalType": "string"
                },
                {
                    "name": "content",
                    "type": "string",
                    "indexed": false,
                    "internalType": "string"
                }
            ],
            "anonymous": false
        },
        {
            "type": "event",
            "name": "RemoveMinter",
            "inputs": [
                {
                    "name": "minter",
                    "type": "address",
                    "indexed": true,
                    "internalType": "address"
                }
            ],
            "anonymous": false
        },
        {
            "type": "event",
            "name": "Transfer",
            "inputs": [
                {
                    "name": "from",
                    "type": "address",
                    "indexed": true,
                    "internalType": "address"
                },
                {
                    "name": "to",
                    "type": "address",
                    "indexed": true,
                    "internalType": "address"
                },
                {
                    "name": "tokenId",
                    "type": "uint256",
                    "indexed": true,
                    "internalType": "uint256"
                }
            ],
            "anonymous": false
        },
        {
            "type": "event",
            "name": "WhitelistMinter",
            "inputs": [
                {
                    "name": "minter",
                    "type": "address",
                    "indexed": true,
                    "internalType": "address"
                }
            ],
            "anonymous": false
        },
        {
            "type": "error",
            "name": "ERC721IncorrectOwner",
            "inputs": [
                {
                    "name": "sender",
                    "type": "address",
                    "internalType": "address"
                },
                {
                    "name": "tokenId",
                    "type": "uint256",
                    "internalType": "uint256"
                },
                {
                    "name": "owner",
                    "type": "address",
                    "internalType": "address"
                }
            ]
        },
        {
            "type": "error",
            "name": "ERC721InsufficientApproval",
            "inputs": [
                {
                    "name": "operator",
                    "type": "address",
                    "internalType": "address"
                },
                {
                    "name": "tokenId",
                    "type": "uint256",
                    "internalType": "uint256"
                }
            ]
        },
        {
            "type": "error",
            "name": "ERC721InvalidApprover",
            "inputs": [
                {
                    "name": "approver",
                    "type": "address",
                    "internalType": "address"
                }
            ]
        },
        {
            "type": "error",
            "name": "ERC721InvalidOperator",
            "inputs": [
                {
                    "name": "operator",
                    "type": "address",
                    "internalType": "address"
                }
            ]
        },
        {
            "type": "error",
            "name": "ERC721InvalidOwner",
            "inputs": [
                {
                    "name": "owner",
                    "type": "address",
                    "internalType": "address"
                }
            ]
        },
        {
            "type": "error",
            "name": "ERC721InvalidReceiver",
            "inputs": [
                {
                    "name": "receiver",
                    "type": "address",
                    "internalType": "address"
                }
            ]
        },
        {
            "type": "error",
            "name": "ERC721InvalidSender",
            "inputs": [
                {
                    "name": "sender",
                    "type": "address",
                    "internalType": "address"
                }
            ]
        },
        {
            "type": "error",
            "name": "ERC721NonexistentToken",
            "inputs": [
                {
                    "name": "tokenId",
                    "type": "uint256",
                    "internalType": "uint256"
                }
            ]
        },
        {
            "type": "error",
            "name": "NonExistentTokenURI",
            "inputs": []
        },
        {
            "type": "error",
            "name": "OwnableInvalidOwner",
            "inputs": [
                {
                    "name": "owner",
                    "type": "address",
                    "internalType": "address"
                }
            ]
        },
        {
            "type": "error",
            "name": "OwnableUnauthorizedAccount",
            "inputs": [
                {
                    "name": "account",
                    "type": "address",
                    "internalType": "address"
                }
            ]
        }
    ],
    "bytecode": {
        "object": "0x608060405234801561001057600080fd5b506040516122b43803806122b483398101604081905261002f9161019e565b808383600061003e83826102ae565b50600161004b82826102ae565b5050506001600160a01b03811661007c57604051631e4fbdf760e01b81526000600482015260240160405180910390fd5b6100858161008e565b5050505061036d565b600680546001600160a01b038381166001600160a01b0319831681179093556040519116919082907f8be0079c531659141344cd1fd0a4f28419497f9722a3daafe3b4186f6b6457e090600090a35050565b634e487b7160e01b600052604160045260246000fd5b600082601f83011261010757600080fd5b81516001600160401b0380821115610121576101216100e0565b604051601f8301601f19908116603f01168101908282118183101715610149576101496100e0565b816040528381526020925086602085880101111561016657600080fd5b600091505b83821015610188578582018301518183018401529082019061016b565b6000602085830101528094505050505092915050565b6000806000606084860312156101b357600080fd5b83516001600160401b03808211156101ca57600080fd5b6101d6878388016100f6565b945060208601519150808211156101ec57600080fd5b506101f9868287016100f6565b604086015190935090506001600160a01b038116811461021857600080fd5b809150509250925092565b600181811c9082168061023757607f821691505b60208210810361025757634e487b7160e01b600052602260045260246000fd5b50919050565b601f8211156102a9576000816000526020600020601f850160051c810160208610156102865750805b601f850160051c820191505b818110156102a557828155600101610292565b5050505b505050565b81516001600160401b038111156102c7576102c76100e0565b6102db816102d58454610223565b8461025d565b602080601f83116001811461031057600084156102f85750858301515b600019600386901b1c1916600185901b1785556102a5565b600085815260208120601f198616915b8281101561033f57888601518255948401946001909101908401610320565b508582101561035d5787850151600019600388901b60f8161c191681555b5050505050600190811b01905550565b611f388061037c6000396000f3fe608060405234801561001057600080fd5b50600436106101415760003560e01c806370a08231116100b8578063a22cb4651161007c578063a22cb465146102a3578063b3e804d0146102b6578063b88d4fde146102c9578063c87b56dd146102dc578063e985e9c5146102ef578063f2fde38b1461030257600080fd5b806370a082311461025c578063715018a61461026f5780638da5cb5b1461027757806395d89b41146102885780639bb257ad1461029057600080fd5b80630d4c5fb21161010a5780630d4c5fb2146101da57806323b872dd146101ed5780633092afd5146102005780633af32abf1461021357806342842e0e146102365780636352211e1461024957600080fd5b80629a9b7b1461014657806301ffc9a71461016257806306fdde0314610185578063081812fc1461019a578063095ea7b3146101c5575b600080fd5b61014f60095481565b6040519081526020015b60405180910390f35b6101756101703660046115bd565b610315565b6040519015158152602001610159565b61018d610367565b6040516101599190611631565b6101ad6101a8366004611644565b6103f9565b6040516001600160a01b039091168152602001610159565b6101d86101d3366004611679565b610422565b005b6101d86101e836600461174f565b610431565b6101d86101fb3660046117ae565b6107c0565b6101d861020e3660046117ea565b610845565b6101756102213660046117ea565b60086020526000908152604090205460ff1681565b6101d86102443660046117ae565b610896565b6101ad610257366004611644565b6108b6565b61014f61026a3660046117ea565b6108c1565b6101d8610909565b6006546001600160a01b03166101ad565b61018d61091d565b6101d861029e3660046117ea565b61092c565b6101d86102b1366004611805565b610980565b61014f6102c4366004611841565b61098b565b6101d86102d73660046118e4565b610ac6565b61018d6102ea366004611644565b610add565b6101756102fd366004611960565b610db4565b6101d86103103660046117ea565b610de2565b60006001600160e01b031982166380ac58cd60e01b148061034657506001600160e01b03198216635b5e139f60e01b145b8061036157506301ffc9a760e01b6001600160e01b03198316145b92915050565b60606000805461037690611993565b80601f01602080910402602001604051908101604052809291908181526020018280546103a290611993565b80156103ef5780601f106103c4576101008083540402835291602001916103ef565b820191906000526020600020905b8154815290600101906020018083116103d257829003601f168201915b5050505050905090565b600061040482610e20565b506000828152600460205260409020546001600160a01b0316610361565b61042d828233610e59565b5050565b3361043b846108b6565b6001600160a01b0316148061045f57503360009081526008602052604090205460ff165b6104cc5760405162461bcd60e51b815260206004820152603360248201527f43616c6c6572206973206e6f742074686520746f6b656e206f776e6572206f72604482015272103a34329031b7b73a3930b1ba1037bbb732b960691b60648201526084015b60405180910390fd5b6000600760008581526020019081526020016000206040518060800160405290816000820154815260200160018201805461050690611993565b80601f016020809104026020016040519081016040528092919081815260200182805461053290611993565b801561057f5780601f106105545761010080835404028352916020019161057f565b820191906000526020600020905b81548152906001019060200180831161056257829003601f168201915b5050505050815260200160028201805461059890611993565b80601f01602080910402602001604051908101604052809291908181526020018280546105c490611993565b80156106115780601f106105e657610100808354040283529160200191610611565b820191906000526020600020905b8154815290600101906020018083116105f457829003601f168201915b5050505050815260200160038201805461062a90611993565b80601f016020809104026020016040519081016040528092919081815260200182805461065690611993565b80156106a35780601f10610678576101008083540402835291602001916106a3565b820191906000526020600020905b81548152906001019060200180831161068657829003601f168201915b5050505050815250509050600060018111156106c1576106c16119cd565b8260018111156106d3576106d36119cd565b03610720578060000151847fcbf6d13c916c79c336feb29e01cfb33cb0b46914ba0bc6ba415bfc505f4c80fa8360200151866040516107139291906119e3565b60405180910390a36107b1565b6001826001811115610734576107346119cd565b03610774578060000151847f299aad4bd0de79fecfce5a849e59221a503c3677a763f7948ffa1e22f704ab1b8360200151866040516107139291906119e3565b60405162461bcd60e51b8152602060048201526012602482015271496e76616c696420746f6b656e207479706560701b60448201526064016104c3565b6107ba84610e66565b50505050565b6001600160a01b0382166107ea57604051633250574960e11b8152600060048201526024016104c3565b60006107f7838333610ea1565b9050836001600160a01b0316816001600160a01b0316146107ba576040516364283d7b60e01b81526001600160a01b03808616600483015260248201849052821660448201526064016104c3565b61084d610f9a565b6001600160a01b038116600081815260086020526040808220805460ff19169055517f2f91b591fc56ac0917953ad01ec225524ee5ef0555213e4c8a9d8c9728ee7ffb9190a250565b6108b183838360405180602001604052806000815250610ac6565b505050565b600061036182610e20565b60006001600160a01b0382166108ed576040516322718ad960e21b8152600060048201526024016104c3565b506001600160a01b031660009081526003602052604090205490565b610911610f9a565b61091b6000610fc7565b565b60606001805461037690611993565b610934610f9a565b6001600160a01b038116600081815260086020526040808220805460ff19166001179055517f09094208b043720577503c2a031522b7df2358c7e7c0373ee7b1260db2bef4c69190a250565b61042d338383611019565b3360009081526008602052604081205460ff166109ea5760405162461bcd60e51b815260206004820152601960248201527f43616c6c6572206973206e6f742077686974656c69737465640000000000000060448201526064016104c3565b60006009600081546109fb90611a27565b91829055509050610a0c87826110b8565b60408051608081018252878152602080820188815282840188905260608301879052600085815260079092529290208151815591519091906001820190610a539082611a90565b5060408201516002820190610a689082611a90565b5060608201516003820190610a7d9082611a90565b5090505085817f5211c4bb751b2215aaefcc61d26596cf5003513409bf122ed7140ec11e8f7f408988604051610ab4929190611b50565b60405180910390a39695505050505050565b610ad18484846107c0565b6107ba848484846110d2565b60606000610aea836108b6565b6001600160a01b031603610b115760405163d872946b60e01b815260040160405180910390fd5b60006007600084815260200190815260200160002060405180608001604052908160008201548152602001600182018054610b4b90611993565b80601f0160208091040260200160405190810160405280929190818152602001828054610b7790611993565b8015610bc45780601f10610b9957610100808354040283529160200191610bc4565b820191906000526020600020905b815481529060010190602001808311610ba757829003601f168201915b50505050508152602001600282018054610bdd90611993565b80601f0160208091040260200160405190810160405280929190818152602001828054610c0990611993565b8015610c565780601f10610c2b57610100808354040283529160200191610c56565b820191906000526020600020905b815481529060010190602001808311610c3957829003601f168201915b50505050508152602001600382018054610c6f90611993565b80601f0160208091040260200160405190810160405280929190818152602001828054610c9b90611993565b8015610ce85780601f10610cbd57610100808354040283529160200191610ce8565b820191906000526020600020905b815481529060010190602001808311610ccb57829003601f168201915b505050505081525050905060008160400151604051602001610d0a9190611b90565b6040516020818303038152906040529050600082604001518360200151604051602001610d38929190611bc4565b60405160208183030381529060405290506000610d878285606001518587604001518860200151604051602001610d73959493929190611c7e565b6040516020818303038152906040526111fb565b905080604051602001610d9a9190611dd7565b604051602081830303815290604052945050505050919050565b6001600160a01b03918216600090815260056020908152604080832093909416825291909152205460ff1690565b610dea610f9a565b6001600160a01b038116610e1457604051631e4fbdf760e01b8152600060048201526024016104c3565b610e1d81610fc7565b50565b6000818152600260205260408120546001600160a01b03168061036157604051637e27328960e01b8152600481018490526024016104c3565b6108b1838383600161135b565b6000610e756000836000610ea1565b90506001600160a01b03811661042d57604051637e27328960e01b8152600481018390526024016104c3565b6000828152600260205260408120546001600160a01b0390811690831615610ece57610ece818486611461565b6001600160a01b03811615610f0c57610eeb60008560008061135b565b6001600160a01b038116600090815260036020526040902080546000190190555b6001600160a01b03851615610f3b576001600160a01b0385166000908152600360205260409020805460010190555b60008481526002602052604080822080546001600160a01b0319166001600160a01b0389811691821790925591518793918516917fddf252ad1be2c89b69c2b068fc378daa952ba7f163c4a11628f55a4df523b3ef91a4949350505050565b6006546001600160a01b0316331461091b5760405163118cdaa760e01b81523360048201526024016104c3565b600680546001600160a01b038381166001600160a01b0319831681179093556040519116919082907f8be0079c531659141344cd1fd0a4f28419497f9722a3daafe3b4186f6b6457e090600090a35050565b6001600160a01b03821661104b57604051630b61174360e31b81526001600160a01b03831660048201526024016104c3565b6001600160a01b03838116600081815260056020908152604080832094871680845294825291829020805460ff191686151590811790915591519182527f17307eab39ab6107e8899845ad3d59bd9653f200f220920489ca2b5937696c31910160405180910390a3505050565b61042d8282604051806020016040528060008152506114c5565b6001600160a01b0383163b156107ba57604051630a85bd0160e11b81526001600160a01b0384169063150b7a0290611114903390889087908790600401611e1c565b6020604051808303816000875af192505050801561114f575060408051601f3d908101601f1916820190925261114c91810190611e59565b60015b6111b8573d80801561117d576040519150601f19603f3d011682016040523d82523d6000602084013e611182565b606091505b5080516000036111b057604051633250574960e11b81526001600160a01b03851660048201526024016104c3565b805181602001fd5b6001600160e01b03198116630a85bd0160e11b146111f457604051633250574960e11b81526001600160a01b03851660048201526024016104c3565b5050505050565b6060815160000361121a57505060408051602081019091526000815290565b6000604051806060016040528060408152602001611ec360409139905060006003845160026112499190611e76565b6112539190611e89565b61125e906004611eab565b67ffffffffffffffff811115611276576112766116a3565b6040519080825280601f01601f1916602001820160405280156112a0576020820181803683370190505b50905060018201602082018586518701602081018051600082525b82841015611316576003840193508351603f8160121c168701518653600186019550603f81600c1c168701518653600186019550603f8160061c168701518653600186019550603f81168701518653506001850194506112bb565b9052505085516003900660018114611335576002811461134857611350565b603d6001830353603d6002830353611350565b603d60018303535b509195945050505050565b808061136f57506001600160a01b03821615155b1561143157600061137f84610e20565b90506001600160a01b038316158015906113ab5750826001600160a01b0316816001600160a01b031614155b80156113be57506113bc8184610db4565b155b156113e75760405163a9fbf51f60e01b81526001600160a01b03841660048201526024016104c3565b811561142f5783856001600160a01b0316826001600160a01b03167f8c5be1e5ebec7d5bd14f71427d1e84f3dd0314c0f7b2291e5b200ac8c7c3b92560405160405180910390a45b505b5050600090815260046020526040902080546001600160a01b0319166001600160a01b0392909216919091179055565b61146c8383836114dc565b6108b1576001600160a01b03831661149a57604051637e27328960e01b8152600481018290526024016104c3565b60405163177e802f60e01b81526001600160a01b0383166004820152602481018290526044016104c3565b6114cf8383611542565b6108b160008484846110d2565b60006001600160a01b0383161580159061153a5750826001600160a01b0316846001600160a01b0316148061151657506115168484610db4565b8061153a57506000828152600460205260409020546001600160a01b038481169116145b949350505050565b6001600160a01b03821661156c57604051633250574960e11b8152600060048201526024016104c3565b600061157a83836000610ea1565b90506001600160a01b038116156108b1576040516339e3563760e11b8152600060048201526024016104c3565b6001600160e01b031981168114610e1d57600080fd5b6000602082840312156115cf57600080fd5b81356115da816115a7565b9392505050565b60005b838110156115fc5781810151838201526020016115e4565b50506000910152565b6000815180845261161d8160208601602086016115e1565b601f01601f19169290920160200192915050565b6020815260006115da6020830184611605565b60006020828403121561165657600080fd5b5035919050565b80356001600160a01b038116811461167457600080fd5b919050565b6000806040838503121561168c57600080fd5b6116958361165d565b946020939093013593505050565b634e487b7160e01b600052604160045260246000fd5b600067ffffffffffffffff808411156116d4576116d46116a3565b604051601f8501601f19908116603f011681019082821181831017156116fc576116fc6116a3565b8160405280935085815286868601111561171557600080fd5b858560208301376000602087830101525050509392505050565b600082601f83011261174057600080fd5b6115da838335602085016116b9565b60008060006060848603121561176457600080fd5b83359250602084013567ffffffffffffffff81111561178257600080fd5b61178e8682870161172f565b9250506040840135600281106117a357600080fd5b809150509250925092565b6000806000606084860312156117c357600080fd5b6117cc8461165d565b92506117da6020850161165d565b9150604084013590509250925092565b6000602082840312156117fc57600080fd5b6115da8261165d565b6000806040838503121561181857600080fd5b6118218361165d565b91506020830135801515811461183657600080fd5b809150509250929050565b600080600080600060a0868803121561185957600080fd5b6118628661165d565b945060208601359350604086013567ffffffffffffffff8082111561188657600080fd5b61189289838a0161172f565b945060608801359150808211156118a857600080fd5b6118b489838a0161172f565b935060808801359150808211156118ca57600080fd5b506118d78882890161172f565b9150509295509295909350565b600080600080608085870312156118fa57600080fd5b6119038561165d565b93506119116020860161165d565b925060408501359150606085013567ffffffffffffffff81111561193457600080fd5b8501601f8101871361194557600080fd5b611954878235602084016116b9565b91505092959194509250565b6000806040838503121561197357600080fd5b61197c8361165d565b915061198a6020840161165d565b90509250929050565b600181811c908216806119a757607f821691505b6020821081036119c757634e487b7160e01b600052602260045260246000fd5b50919050565b634e487b7160e01b600052602160045260246000fd5b6040815260006119f66040830185611605565b8281036020840152611a088185611605565b95945050505050565b634e487b7160e01b600052601160045260246000fd5b600060018201611a3957611a39611a11565b5060010190565b601f8211156108b1576000816000526020600020601f850160051c81016020861015611a695750805b601f850160051c820191505b81811015611a8857828155600101611a75565b505050505050565b815167ffffffffffffffff811115611aaa57611aaa6116a3565b611abe81611ab88454611993565b84611a40565b602080601f831160018114611af35760008415611adb5750858301515b600019600386901b1c1916600185901b178555611a88565b600085815260208120601f198616915b82811015611b2257888601518255948401946001909101908401611b03565b5085821015611b405787850151600019600388901b60f8161c191681555b5050505050600190811b01905550565b6001600160a01b038316815260406020820181905260009061153a90830184611605565b60008151611b868185602086016115e1565b9290920192915050565b6b02a32b632b837b93a103a37960a51b815260008251611bb781600c8501602087016115e1565b91909101600c0192915050565b7f416c6c6f777320796f7520746f20706f7374206f6e63652066726f6d20000000815260008351611bfc81601d8501602088016115e1565b80830190507f2773206163636f756e7420696620796f757220706f7374207061737365732074601d8201527f686520666f6c6c6f77696e6720636865636b20627920746865204c4c4d3a2000603d820152602760f81b80605c8301528451611c6b81605d8501602089016115e1565b605d920191820152605e01949350505050565b703d913232b9b1b934b83a34b7b7111d101160791b81528551600090611cab816011850160208b016115e1565b6c1116101134b6b0b3b2911d101160991b6011918401918201528651611cd881601e840160208b016115e1565b6b111610113730b6b2911d101160a11b601e92909101918201528551611d0581602a840160208a016115e1565b7f222c202261747472696275746573223a205b7b2274726169745f74797065223a602a92909101918201527f20225820557365726e616d65222c202276616c7565223a202200000000000000604a8201528451611d698160638401602089016115e1565b7f227d2c207b2274726169745f74797065223a20224c4c4d207361666567756172606392909101918201526d32111610113b30b63ab2911d101160911b6083820152611dcb611dbb6091830186611b74565b63227d5d7d60e01b815260040190565b98975050505050505050565b7f646174613a6170706c69636174696f6e2f6a736f6e3b6261736536342c000000815260008251611e0f81601d8501602087016115e1565b91909101601d0192915050565b6001600160a01b0385811682528416602082015260408101839052608060608201819052600090611e4f90830184611605565b9695505050505050565b600060208284031215611e6b57600080fd5b81516115da816115a7565b8082018082111561036157610361611a11565b600082611ea657634e487b7160e01b600052601260045260246000fd5b500490565b808202811582820484141761036157610361611a1156fe4142434445464748494a4b4c4d4e4f505152535455565758595a6162636465666768696a6b6c6d6e6f707172737475767778797a303132333435363738392b2fa2646970667358221220d70541e9ba61c3ffd446549c7fe1f9e00e8c782677d77edbc030f1d0710f32ee64736f6c63430008190033",
        "linkReferences": {}
    },
    "methodIdentifiers": {
        "approve(address,uint256)": "095ea7b3",
        "balanceOf(address)": "70a08231",
        "currentTokenId()": "009a9b7b",
        "getApproved(uint256)": "081812fc",
        "isApprovedForAll(address,address)": "e985e9c5",
        "isWhitelisted(address)": "3af32abf",
        "mintTo(address,uint256,string,string,string)": "b3e804d0",
        "name()": "06fdde03",
        "owner()": "8da5cb5b",
        "ownerOf(uint256)": "6352211e",
        "redeem(uint256,string,uint8)": "0d4c5fb2",
        "removeMinter(address)": "3092afd5",
        "renounceOwnership()": "715018a6",
        "safeTransferFrom(address,address,uint256)": "42842e0e",
        "safeTransferFrom(address,address,uint256,bytes)": "b88d4fde",
        "setApprovalForAll(address,bool)": "a22cb465",
        "supportsInterface(bytes4)": "01ffc9a7",
        "symbol()": "95d89b41",
        "tokenURI(uint256)": "c87b56dd",
        "transferFrom(address,address,uint256)": "23b872dd",
        "transferOwnership(address)": "f2fde38b",
        "whitelistMinter(address)": "9bb257ad"
    },
    "id": 33
}