{
    "abi": [
        {
            "type": "constructor",
            "inputs": [
                {
                    "name": "_name",
                    "type": "string",
                    "internalType": "string"
                },
                {
                    "name": "_symbol",
                    "type": "string",
                    "internalType": "string"
                },
                {
                    "name": "initialOwner",
                    "type": "address",
                    "internalType": "address"
                }
            ],
            "stateMutability": "nonpayable"
        },
        {
            "type": "function",
            "name": "addTweetTime",
            "inputs": [
                {
                    "name": "tokenId",
                    "type": "uint256",
                    "internalType": "uint256"
                },
                {
                    "name": "time",
                    "type": "uint256",
                    "internalType": "uint256"
                }
            ],
            "outputs": [],
            "stateMutability": "nonpayable"
        },
        {
            "type": "function",
            "name": "approve",
            "inputs": [
                {
                    "name": "to",
                    "type": "address",
                    "internalType": "address"
                },
                {
                    "name": "tokenId",
                    "type": "uint256",
                    "internalType": "uint256"
                }
            ],
            "outputs": [],
            "stateMutability": "nonpayable"
        },
        {
            "type": "function",
            "name": "balanceOf",
            "inputs": [
                {
                    "name": "owner",
                    "type": "address",
                    "internalType": "address"
                }
            ],
            "outputs": [
                {
                    "name": "",
                    "type": "uint256",
                    "internalType": "uint256"
                }
            ],
            "stateMutability": "view"
        },
        {
            "type": "function",
            "name": "currentTokenId",
            "inputs": [],
            "outputs": [
                {
                    "name": "",
                    "type": "uint256",
                    "internalType": "uint256"
                }
            ],
            "stateMutability": "view"
        },
        {
            "type": "function",
            "name": "getApproved",
            "inputs": [
                {
                    "name": "tokenId",
                    "type": "uint256",
                    "internalType": "uint256"
                }
            ],
            "outputs": [
                {
                    "name": "",
                    "type": "address",
                    "internalType": "address"
                }
            ],
            "stateMutability": "view"
        },
        {
            "type": "function",
            "name": "isApprovedForAll",
            "inputs": [
                {
                    "name": "owner",
                    "type": "address",
                    "internalType": "address"
                },
                {
                    "name": "operator",
                    "type": "address",
                    "internalType": "address"
                }
            ],
            "outputs": [
                {
                    "name": "",
                    "type": "bool",
                    "internalType": "bool"
                }
            ],
            "stateMutability": "view"
        },
        {
            "type": "function",
            "name": "isWhitelisted",
            "inputs": [
                {
                    "name": "",
                    "type": "address",
                    "internalType": "address"
                }
            ],
            "outputs": [
                {
                    "name": "",
                    "type": "bool",
                    "internalType": "bool"
                }
            ],
            "stateMutability": "view"
        },
        {
            "type": "function",
            "name": "mintTo",
            "inputs": [
                {
                    "name": "recipient",
                    "type": "address",
                    "internalType": "address"
                },
                {
                    "name": "x_id",
                    "type": "uint256",
                    "internalType": "uint256"
                },
                {
                    "name": "policy",
                    "type": "string",
                    "internalType": "string"
                },
                {
                    "name": "name",
                    "type": "string",
                    "internalType": "string"
                },
                {
                    "name": "username",
                    "type": "string",
                    "internalType": "string"
                },
                {
                    "name": "pfp",
                    "type": "string",
                    "internalType": "string"
                },
                {
                    "name": "nftIdHash",
                    "type": "bytes32",
                    "internalType": "bytes32"
                },
                {
                    "name": "usesLeft",
                    "type": "uint256",
                    "internalType": "uint256"
                }
            ],
            "outputs": [
                {
                    "name": "",
                    "type": "uint256",
                    "internalType": "uint256"
                }
            ],
            "stateMutability": "nonpayable"
        },
        {
            "type": "function",
            "name": "name",
            "inputs": [],
            "outputs": [
                {
                    "name": "",
                    "type": "string",
                    "internalType": "string"
                }
            ],
            "stateMutability": "view"
        },
        {
            "type": "function",
            "name": "nftIdMap",
            "inputs": [
                {
                    "name": "",
                    "type": "bytes32",
                    "internalType": "bytes32"
                }
            ],
            "outputs": [
                {
                    "name": "",
                    "type": "uint256",
                    "internalType": "uint256"
                }
            ],
            "stateMutability": "view"
        },
        {
            "type": "function",
            "name": "owner",
            "inputs": [],
            "outputs": [
                {
                    "name": "",
                    "type": "address",
                    "internalType": "address"
                }
            ],
            "stateMutability": "view"
        },
        {
            "type": "function",
            "name": "ownerOf",
            "inputs": [
                {
                    "name": "tokenId",
                    "type": "uint256",
                    "internalType": "uint256"
                }
            ],
            "outputs": [
                {
                    "name": "",
                    "type": "address",
                    "internalType": "address"
                }
            ],
            "stateMutability": "view"
        },
        {
            "type": "function",
            "name": "redeem",
            "inputs": [
                {
                    "name": "tokenId",
                    "type": "uint256",
                    "internalType": "uint256"
                },
                {
                    "name": "content",
                    "type": "string",
                    "internalType": "string"
                },
                {
                    "name": "tokenType",
                    "type": "uint8",
                    "internalType": "enum NFT.TokenType"
                }
            ],
            "outputs": [],
            "stateMutability": "nonpayable"
        },
        {
            "type": "function",
            "name": "removeMinter",
            "inputs": [
                {
                    "name": "minter",
                    "type": "address",
                    "internalType": "address"
                }
            ],
            "outputs": [],
            "stateMutability": "nonpayable"
        },
        {
            "type": "function",
            "name": "renounceOwnership",
            "inputs": [],
            "outputs": [],
            "stateMutability": "nonpayable"
        },
        {
            "type": "function",
            "name": "safeTransferFrom",
            "inputs": [
                {
                    "name": "from",
                    "type": "address",
                    "internalType": "address"
                },
                {
                    "name": "to",
                    "type": "address",
                    "internalType": "address"
                },
                {
                    "name": "tokenId",
                    "type": "uint256",
                    "internalType": "uint256"
                }
            ],
            "outputs": [],
            "stateMutability": "nonpayable"
        },
        {
            "type": "function",
            "name": "safeTransferFrom",
            "inputs": [
                {
                    "name": "from",
                    "type": "address",
                    "internalType": "address"
                },
                {
                    "name": "to",
                    "type": "address",
                    "internalType": "address"
                },
                {
                    "name": "tokenId",
                    "type": "uint256",
                    "internalType": "uint256"
                },
                {
                    "name": "data",
                    "type": "bytes",
                    "internalType": "bytes"
                }
            ],
            "outputs": [],
            "stateMutability": "nonpayable"
        },
        {
            "type": "function",
            "name": "setApprovalForAll",
            "inputs": [
                {
                    "name": "operator",
                    "type": "address",
                    "internalType": "address"
                },
                {
                    "name": "approved",
                    "type": "bool",
                    "internalType": "bool"
                }
            ],
            "outputs": [],
            "stateMutability": "nonpayable"
        },
        {
            "type": "function",
            "name": "supportsInterface",
            "inputs": [
                {
                    "name": "interfaceId",
                    "type": "bytes4",
                    "internalType": "bytes4"
                }
            ],
            "outputs": [
                {
                    "name": "",
                    "type": "bool",
                    "internalType": "bool"
                }
            ],
            "stateMutability": "view"
        },
        {
            "type": "function",
            "name": "symbol",
            "inputs": [],
            "outputs": [
                {
                    "name": "",
                    "type": "string",
                    "internalType": "string"
                }
            ],
            "stateMutability": "view"
        },
        {
            "type": "function",
            "name": "tokenURI",
            "inputs": [
                {
                    "name": "tokenId",
                    "type": "uint256",
                    "internalType": "uint256"
                }
            ],
            "outputs": [
                {
                    "name": "",
                    "type": "string",
                    "internalType": "string"
                }
            ],
            "stateMutability": "view"
        },
        {
            "type": "function",
            "name": "transferFrom",
            "inputs": [
                {
                    "name": "from",
                    "type": "address",
                    "internalType": "address"
                },
                {
                    "name": "to",
                    "type": "address",
                    "internalType": "address"
                },
                {
                    "name": "tokenId",
                    "type": "uint256",
                    "internalType": "uint256"
                }
            ],
            "outputs": [],
            "stateMutability": "nonpayable"
        },
        {
            "type": "function",
            "name": "transferOwnership",
            "inputs": [
                {
                    "name": "newOwner",
                    "type": "address",
                    "internalType": "address"
                }
            ],
            "outputs": [],
            "stateMutability": "nonpayable"
        },
        {
            "type": "function",
            "name": "whitelistMinter",
            "inputs": [
                {
                    "name": "minter",
                    "type": "address",
                    "internalType": "address"
                }
            ],
            "outputs": [],
            "stateMutability": "nonpayable"
        },
        {
            "type": "event",
            "name": "Approval",
            "inputs": [
                {
                    "name": "owner",
                    "type": "address",
                    "indexed": true,
                    "internalType": "address"
                },
                {
                    "name": "approved",
                    "type": "address",
                    "indexed": true,
                    "internalType": "address"
                },
                {
                    "name": "tokenId",
                    "type": "uint256",
                    "indexed": true,
                    "internalType": "uint256"
                }
            ],
            "anonymous": false
        },
        {
            "type": "event",
            "name": "ApprovalForAll",
            "inputs": [
                {
                    "name": "owner",
                    "type": "address",
                    "indexed": true,
                    "internalType": "address"
                },
                {
                    "name": "operator",
                    "type": "address",
                    "indexed": true,
                    "internalType": "address"
                },
                {
                    "name": "approved",
                    "type": "bool",
                    "indexed": false,
                    "internalType": "bool"
                }
            ],
            "anonymous": false
        },
        {
            "type": "event",
            "name": "NewTokenData",
            "inputs": [
                {
                    "name": "tokenId",
                    "type": "uint256",
                    "indexed": true,
                    "internalType": "uint256"
                },
                {
                    "name": "x_id",
                    "type": "uint256",
                    "indexed": true,
                    "internalType": "uint256"
                },
                {
                    "name": "to",
                    "type": "address",
                    "indexed": false,
                    "internalType": "address"
                },
                {
                    "name": "policy",
                    "type": "string",
                    "indexed": false,
                    "internalType": "string"
                },
                {
                    "name": "name",
                    "type": "string",
                    "indexed": false,
                    "internalType": "string"
                },
                {
                    "name": "username",
                    "type": "string",
                    "indexed": false,
                    "internalType": "string"
                },
                {
                    "name": "pfp",
                    "type": "string",
                    "indexed": false,
                    "internalType": "string"
                },
                {
                    "name": "tweetTime",
                    "type": "uint256",
                    "indexed": false,
                    "internalType": "uint256"
                }
            ],
            "anonymous": false
        },
        {
            "type": "event",
            "name": "OwnershipTransferred",
            "inputs": [
                {
                    "name": "previousOwner",
                    "type": "address",
                    "indexed": true,
                    "internalType": "address"
                },
                {
                    "name": "newOwner",
                    "type": "address",
                    "indexed": true,
                    "internalType": "address"
                }
            ],
            "anonymous": false
        },
        {
            "type": "event",
            "name": "RedeemLike",
            "inputs": [
                {
                    "name": "tokenId",
                    "type": "uint256",
                    "indexed": true,
                    "internalType": "uint256"
                },
                {
                    "name": "x_id",
                    "type": "uint256",
                    "indexed": true,
                    "internalType": "uint256"
                },
                {
                    "name": "policy",
                    "type": "string",
                    "indexed": false,
                    "internalType": "string"
                },
                {
                    "name": "tweetId",
                    "type": "string",
                    "indexed": false,
                    "internalType": "string"
                }
            ],
            "anonymous": false
        },
        {
            "type": "event",
            "name": "RedeemTweet",
            "inputs": [
                {
                    "name": "tokenId",
                    "type": "uint256",
                    "indexed": true,
                    "internalType": "uint256"
                },
                {
                    "name": "x_id",
                    "type": "uint256",
                    "indexed": true,
                    "internalType": "uint256"
                },
                {
                    "name": "addr",
                    "type": "address",
                    "indexed": false,
                    "internalType": "address"
                },
                {
                    "name": "policy",
                    "type": "string",
                    "indexed": false,
                    "internalType": "string"
                },
                {
                    "name": "content",
                    "type": "string",
                    "indexed": false,
                    "internalType": "string"
                }
            ],
            "anonymous": false
        },
        {
            "type": "event",
            "name": "RemoveMinter",
            "inputs": [
                {
                    "name": "minter",
                    "type": "address",
                    "indexed": true,
                    "internalType": "address"
                }
            ],
            "anonymous": false
        },
        {
            "type": "event",
            "name": "Transfer",
            "inputs": [
                {
                    "name": "from",
                    "type": "address",
                    "indexed": true,
                    "internalType": "address"
                },
                {
                    "name": "to",
                    "type": "address",
                    "indexed": true,
                    "internalType": "address"
                },
                {
                    "name": "tokenId",
                    "type": "uint256",
                    "indexed": true,
                    "internalType": "uint256"
                }
            ],
            "anonymous": false
        },
        {
            "type": "event",
            "name": "TweetTimeUpdated",
            "inputs": [
                {
                    "name": "tokenId",
                    "type": "uint256",
                    "indexed": true,
                    "internalType": "uint256"
                },
                {
                    "name": "oldTweetTime",
                    "type": "uint256",
                    "indexed": false,
                    "internalType": "uint256"
                },
                {
                    "name": "newTweetTime",
                    "type": "uint256",
                    "indexed": false,
                    "internalType": "uint256"
                }
            ],
            "anonymous": false
        },
        {
            "type": "event",
            "name": "WhitelistMinter",
            "inputs": [
                {
                    "name": "minter",
                    "type": "address",
                    "indexed": true,
                    "internalType": "address"
                }
            ],
            "anonymous": false
        },
        {
            "type": "error",
            "name": "ERC721IncorrectOwner",
            "inputs": [
                {
                    "name": "sender",
                    "type": "address",
                    "internalType": "address"
                },
                {
                    "name": "tokenId",
                    "type": "uint256",
                    "internalType": "uint256"
                },
                {
                    "name": "owner",
                    "type": "address",
                    "internalType": "address"
                }
            ]
        },
        {
            "type": "error",
            "name": "ERC721InsufficientApproval",
            "inputs": [
                {
                    "name": "operator",
                    "type": "address",
                    "internalType": "address"
                },
                {
                    "name": "tokenId",
                    "type": "uint256",
                    "internalType": "uint256"
                }
            ]
        },
        {
            "type": "error",
            "name": "ERC721InvalidApprover",
            "inputs": [
                {
                    "name": "approver",
                    "type": "address",
                    "internalType": "address"
                }
            ]
        },
        {
            "type": "error",
            "name": "ERC721InvalidOperator",
            "inputs": [
                {
                    "name": "operator",
                    "type": "address",
                    "internalType": "address"
                }
            ]
        },
        {
            "type": "error",
            "name": "ERC721InvalidOwner",
            "inputs": [
                {
                    "name": "owner",
                    "type": "address",
                    "internalType": "address"
                }
            ]
        },
        {
            "type": "error",
            "name": "ERC721InvalidReceiver",
            "inputs": [
                {
                    "name": "receiver",
                    "type": "address",
                    "internalType": "address"
                }
            ]
        },
        {
            "type": "error",
            "name": "ERC721InvalidSender",
            "inputs": [
                {
                    "name": "sender",
                    "type": "address",
                    "internalType": "address"
                }
            ]
        },
        {
            "type": "error",
            "name": "ERC721NonexistentToken",
            "inputs": [
                {
                    "name": "tokenId",
                    "type": "uint256",
                    "internalType": "uint256"
                }
            ]
        },
        {
            "type": "error",
            "name": "NonExistentTokenURI",
            "inputs": []
        },
        {
            "type": "error",
            "name": "OwnableInvalidOwner",
            "inputs": [
                {
                    "name": "owner",
                    "type": "address",
                    "internalType": "address"
                }
            ]
        },
        {
            "type": "error",
            "name": "OwnableUnauthorizedAccount",
            "inputs": [
                {
                    "name": "account",
                    "type": "address",
                    "internalType": "address"
                }
            ]
        }
    ],
    "bytecode": {
        "object": "0x608060405234801561001057600080fd5b506040516125ed3803806125ed83398101604081905261002f9161019e565b808383600061003e83826102ae565b50600161004b82826102ae565b5050506001600160a01b03811661007c57604051631e4fbdf760e01b81526000600482015260240160405180910390fd5b6100858161008e565b5050505061036d565b600680546001600160a01b038381166001600160a01b0319831681179093556040519116919082907f8be0079c531659141344cd1fd0a4f28419497f9722a3daafe3b4186f6b6457e090600090a35050565b634e487b7160e01b600052604160045260246000fd5b600082601f83011261010757600080fd5b81516001600160401b0380821115610121576101216100e0565b604051601f8301601f19908116603f01168101908282118183101715610149576101496100e0565b816040528381526020925086602085880101111561016657600080fd5b600091505b83821015610188578582018301518183018401529082019061016b565b6000602085830101528094505050505092915050565b6000806000606084860312156101b357600080fd5b83516001600160401b03808211156101ca57600080fd5b6101d6878388016100f6565b945060208601519150808211156101ec57600080fd5b506101f9868287016100f6565b604086015190935090506001600160a01b038116811461021857600080fd5b809150509250925092565b600181811c9082168061023757607f821691505b60208210810361025757634e487b7160e01b600052602260045260246000fd5b50919050565b601f8211156102a9576000816000526020600020601f850160051c810160208610156102865750805b601f850160051c820191505b818110156102a557828155600101610292565b5050505b505050565b81516001600160401b038111156102c7576102c76100e0565b6102db816102d58454610223565b8461025d565b602080601f83116001811461031057600084156102f85750858301515b600019600386901b1c1916600185901b1785556102a5565b600085815260208120601f198616915b8281101561033f57888601518255948401946001909101908401610320565b508582101561035d5787850151600019600388901b60f8161c191681555b5050505050600190811b01905550565b6122718061037c6000396000f3fe608060405234801561001057600080fd5b50600436106101575760003560e01c8063715018a6116100c3578063a22cb4651161007c578063a22cb465146102ec578063a30c1d42146102ff578063b88d4fde14610312578063c87b56dd14610325578063e985e9c514610338578063f2fde38b1461034b57600080fd5b8063715018a61461028557806381ee5e091461028d57806386fd926e146102ad5780638da5cb5b146102c057806395d89b41146102d15780639bb257ad146102d957600080fd5b806323b872dd1161011557806323b872dd146102035780633092afd5146102165780633af32abf1461022957806342842e0e1461024c5780636352211e1461025f57806370a082311461027257600080fd5b80629a9b7b1461015c57806301ffc9a71461017857806306fdde031461019b578063081812fc146101b0578063095ea7b3146101db5780630d4c5fb2146101f0575b600080fd5b610165600a5481565b6040519081526020015b60405180910390f35b61018b6101863660046116eb565b61035e565b604051901515815260200161016f565b6101a36103b0565b60405161016f919061175f565b6101c36101be366004611772565b610442565b6040516001600160a01b03909116815260200161016f565b6101ee6101e93660046117a7565b61046b565b005b6101ee6101fe36600461187d565b61047a565b6101ee6102113660046118dc565b610695565b6101ee610224366004611918565b61071a565b61018b610237366004611918565b60096020526000908152604090205460ff1681565b6101ee61025a3660046118dc565b61076b565b6101c361026d366004611772565b61078b565b610165610280366004611918565b610796565b6101ee6107de565b61016561029b366004611772565b60076020526000908152604090205481565b6101656102bb366004611933565b6107f2565b6006546001600160a01b03166101c3565b6101a36109ff565b6101ee6102e7366004611918565b610a0e565b6101ee6102fa366004611a0e565b610a62565b6101ee61030d366004611a4a565b610a6d565b6101ee610320366004611a6c565b610b40565b6101a3610333366004611772565b610b57565b61018b610346366004611ae8565b610ee2565b6101ee610359366004611918565b610f10565b60006001600160e01b031982166380ac58cd60e01b148061038f57506001600160e01b03198216635b5e139f60e01b145b806103aa57506301ffc9a760e01b6001600160e01b03198316145b92915050565b6060600080546103bf90611b1b565b80601f01602080910402602001604051908101604052809291908181526020018280546103eb90611b1b565b80156104385780601f1061040d57610100808354040283529160200191610438565b820191906000526020600020905b81548152906001019060200180831161041b57829003601f168201915b5050505050905090565b600061044d82610f4e565b506000828152600460205260409020546001600160a01b03166103aa565b610476828233610f87565b5050565b336104848461078b565b6001600160a01b031614806104a857503360009081526009602052604090205460ff165b6105155760405162461bcd60e51b815260206004820152603360248201527f43616c6c6572206973206e6f742074686520746f6b656e206f776e6572206f72604482015272103a34329031b7b73a3930b1ba1037bbb732b960691b60648201526084015b60405180910390fd5b600083815260086020526040902060068101546105655760405162461bcd60e51b815260206004820152600e60248201526d055736573206c65667420697320360941b604482015260640161050c565b600082600181111561057957610579611b55565b036105d3578054600182015460405186917f595747e7f228a851268db2586ad8611651b09bec01d8ad30d446983767b66e81916105c6916001600160a01b03169060028701908990611be8565b60405180910390a3610663565b60018260018111156105e7576105e7611b55565b03610626578060000154847f299aad4bd0de79fecfce5a849e59221a503c3677a763f7948ffa1e22f704ab1b83600201866040516105c6929190611c28565b60405162461bcd60e51b8152602060048201526012602482015271496e76616c696420746f6b656e207479706560701b604482015260640161050c565b60068101805490600061067583611c6c565b9190505550806006015460000361068f5761068f84610f94565b50505050565b6001600160a01b0382166106bf57604051633250574960e11b81526000600482015260240161050c565b60006106cc838333610fcf565b9050836001600160a01b0316816001600160a01b03161461068f576040516364283d7b60e01b81526001600160a01b038086166004830152602482018490528216604482015260640161050c565b6107226110c8565b6001600160a01b038116600081815260096020526040808220805460ff19169055517f2f91b591fc56ac0917953ad01ec225524ee5ef0555213e4c8a9d8c9728ee7ffb9190a250565b61078683838360405180602001604052806000815250610b40565b505050565b60006103aa82610f4e565b60006001600160a01b0382166107c2576040516322718ad960e21b81526000600482015260240161050c565b506001600160a01b031660009081526003602052604090205490565b6107e66110c8565b6107f060006110f5565b565b3360009081526009602052604081205460ff166108515760405162461bcd60e51b815260206004820152601960248201527f43616c6c6572206973206e6f742077686974656c697374656400000000000000604482015260640161050c565b6000838152600760205260409020541561086a57600080fd5b600082116108ab5760405162461bcd60e51b815260206004820152600e60248201526d055736573206c65667420697320360941b604482015260640161050c565b6000600a600081546108bc90611c83565b918290555090506108cd8a82611147565b6040805160e0810182528a81526001600160a01b038c811660208084019182528385018d8152606085018d9052608085018c905260a085018b905260c08501899052600087815260089092529490208351815590516001820180546001600160a01b03191691909316179091559151909190600282019061094e9082611cec565b50606082015160038201906109639082611cec565b50608082015160048201906109789082611cec565b5060a0820151600582019061098d9082611cec565b5060c091909101516006909101556000848152600760205260409081902082905551899082907ff7ea152b0f103773a4ea4b715874ce8e72e373fdc3c1ceddca301eb7c07f22f8906109ea908e908d908d908d908d908c90611dac565b60405180910390a39998505050505050505050565b6060600180546103bf90611b1b565b610a166110c8565b6001600160a01b038116600081815260096020526040808220805460ff19166001179055517f09094208b043720577503c2a031522b7df2358c7e7c0373ee7b1260db2bef4c69190a250565b610476338383611161565b3360009081526009602052604090205460ff16610acc5760405162461bcd60e51b815260206004820181905260248201527f43616c6c6572206973206e6f742074686520636f6e7472616374206f776e6572604482015260640161050c565b60008281526008602052604081206006810180549192849190610aef8385611e1e565b9091555050600682015460405185917fd584c6c72dbeac14743e64691825f60e2b1c3978d43b01bb24d2b47b3fcb196491610b3291858252602082015260400190565b60405180910390a250505050565b610b4b848484610695565b61068f84848484611200565b60606000610b648361078b565b6001600160a01b031603610b8b5760405163d872946b60e01b815260040160405180910390fd5b6000828152600860209081526040808320815160e0810183528154815260018201546001600160a01b0316938101939093526002810180549192840191610bd190611b1b565b80601f0160208091040260200160405190810160405280929190818152602001828054610bfd90611b1b565b8015610c4a5780601f10610c1f57610100808354040283529160200191610c4a565b820191906000526020600020905b815481529060010190602001808311610c2d57829003601f168201915b50505050508152602001600382018054610c6390611b1b565b80601f0160208091040260200160405190810160405280929190818152602001828054610c8f90611b1b565b8015610cdc5780601f10610cb157610100808354040283529160200191610cdc565b820191906000526020600020905b815481529060010190602001808311610cbf57829003601f168201915b50505050508152602001600482018054610cf590611b1b565b80601f0160208091040260200160405190810160405280929190818152602001828054610d2190611b1b565b8015610d6e5780601f10610d4357610100808354040283529160200191610d6e565b820191906000526020600020905b815481529060010190602001808311610d5157829003601f168201915b50505050508152602001600582018054610d8790611b1b565b80601f0160208091040260200160405190810160405280929190818152602001828054610db390611b1b565b8015610e005780601f10610dd557610100808354040283529160200191610e00565b820191906000526020600020905b815481529060010190602001808311610de357829003601f168201915b50505050508152602001600682015481525050905060008160800151604051602001610e2c9190611e4d565b6040516020818303038152906040529050600082608001518360400151604051602001610e5a929190611e81565b60405160208183030381529060405290506000610eb5828560a0015185876080015188604001518960c001518a60600151604051602001610ea19796959493929190611f3b565b604051602081830303815290604052611329565b905080604051602001610ec8919061212d565b604051602081830303815290604052945050505050919050565b6001600160a01b03918216600090815260056020908152604080832093909416825291909152205460ff1690565b610f186110c8565b6001600160a01b038116610f4257604051631e4fbdf760e01b81526000600482015260240161050c565b610f4b816110f5565b50565b6000818152600260205260408120546001600160a01b0316806103aa57604051637e27328960e01b81526004810184905260240161050c565b6107868383836001611489565b6000610fa36000836000610fcf565b90506001600160a01b03811661047657604051637e27328960e01b81526004810183905260240161050c565b6000828152600260205260408120546001600160a01b0390811690831615610ffc57610ffc81848661158f565b6001600160a01b0381161561103a57611019600085600080611489565b6001600160a01b038116600090815260036020526040902080546000190190555b6001600160a01b03851615611069576001600160a01b0385166000908152600360205260409020805460010190555b60008481526002602052604080822080546001600160a01b0319166001600160a01b0389811691821790925591518793918516917fddf252ad1be2c89b69c2b068fc378daa952ba7f163c4a11628f55a4df523b3ef91a4949350505050565b6006546001600160a01b031633146107f05760405163118cdaa760e01b815233600482015260240161050c565b600680546001600160a01b038381166001600160a01b0319831681179093556040519116919082907f8be0079c531659141344cd1fd0a4f28419497f9722a3daafe3b4186f6b6457e090600090a35050565b6104768282604051806020016040528060008152506115f3565b6001600160a01b03821661119357604051630b61174360e31b81526001600160a01b038316600482015260240161050c565b6001600160a01b03838116600081815260056020908152604080832094871680845294825291829020805460ff191686151590811790915591519182527f17307eab39ab6107e8899845ad3d59bd9653f200f220920489ca2b5937696c31910160405180910390a3505050565b6001600160a01b0383163b1561068f57604051630a85bd0160e11b81526001600160a01b0384169063150b7a0290611242903390889087908790600401612172565b6020604051808303816000875af192505050801561127d575060408051601f3d908101601f1916820190925261127a918101906121a5565b60015b6112e6573d8080156112ab576040519150601f19603f3d011682016040523d82523d6000602084013e6112b0565b606091505b5080516000036112de57604051633250574960e11b81526001600160a01b038516600482015260240161050c565b805181602001fd5b6001600160e01b03198116630a85bd0160e11b1461132257604051633250574960e11b81526001600160a01b038516600482015260240161050c565b5050505050565b6060815160000361134857505060408051602081019091526000815290565b60006040518060600160405280604081526020016121fc60409139905060006003845160026113779190611e1e565b61138191906121c2565b61138c9060046121e4565b67ffffffffffffffff8111156113a4576113a46117d1565b6040519080825280601f01601f1916602001820160405280156113ce576020820181803683370190505b50905060018201602082018586518701602081018051600082525b82841015611444576003840193508351603f8160121c168701518653600186019550603f81600c1c168701518653600186019550603f8160061c168701518653600186019550603f81168701518653506001850194506113e9565b905250508551600390066001811461146357600281146114765761147e565b603d6001830353603d600283035361147e565b603d60018303535b509195945050505050565b808061149d57506001600160a01b03821615155b1561155f5760006114ad84610f4e565b90506001600160a01b038316158015906114d95750826001600160a01b0316816001600160a01b031614155b80156114ec57506114ea8184610ee2565b155b156115155760405163a9fbf51f60e01b81526001600160a01b038416600482015260240161050c565b811561155d5783856001600160a01b0316826001600160a01b03167f8c5be1e5ebec7d5bd14f71427d1e84f3dd0314c0f7b2291e5b200ac8c7c3b92560405160405180910390a45b505b5050600090815260046020526040902080546001600160a01b0319166001600160a01b0392909216919091179055565b61159a83838361160a565b610786576001600160a01b0383166115c857604051637e27328960e01b81526004810182905260240161050c565b60405163177e802f60e01b81526001600160a01b03831660048201526024810182905260440161050c565b6115fd8383611670565b6107866000848484611200565b60006001600160a01b038316158015906116685750826001600160a01b0316846001600160a01b0316148061164457506116448484610ee2565b8061166857506000828152600460205260409020546001600160a01b038481169116145b949350505050565b6001600160a01b03821661169a57604051633250574960e11b81526000600482015260240161050c565b60006116a883836000610fcf565b90506001600160a01b03811615610786576040516339e3563760e11b81526000600482015260240161050c565b6001600160e01b031981168114610f4b57600080fd5b6000602082840312156116fd57600080fd5b8135611708816116d5565b9392505050565b60005b8381101561172a578181015183820152602001611712565b50506000910152565b6000815180845261174b81602086016020860161170f565b601f01601f19169290920160200192915050565b6020815260006117086020830184611733565b60006020828403121561178457600080fd5b5035919050565b80356001600160a01b03811681146117a257600080fd5b919050565b600080604083850312156117ba57600080fd5b6117c38361178b565b946020939093013593505050565b634e487b7160e01b600052604160045260246000fd5b600067ffffffffffffffff80841115611802576118026117d1565b604051601f8501601f19908116603f0116810190828211818310171561182a5761182a6117d1565b8160405280935085815286868601111561184357600080fd5b858560208301376000602087830101525050509392505050565b600082601f83011261186e57600080fd5b611708838335602085016117e7565b60008060006060848603121561189257600080fd5b83359250602084013567ffffffffffffffff8111156118b057600080fd5b6118bc8682870161185d565b9250506040840135600281106118d157600080fd5b809150509250925092565b6000806000606084860312156118f157600080fd5b6118fa8461178b565b92506119086020850161178b565b9150604084013590509250925092565b60006020828403121561192a57600080fd5b6117088261178b565b600080600080600080600080610100898b03121561195057600080fd5b6119598961178b565b975060208901359650604089013567ffffffffffffffff8082111561197d57600080fd5b6119898c838d0161185d565b975060608b013591508082111561199f57600080fd5b6119ab8c838d0161185d565b965060808b01359150808211156119c157600080fd5b6119cd8c838d0161185d565b955060a08b01359150808211156119e357600080fd5b506119f08b828c0161185d565b93505060c0890135915060e089013590509295985092959890939650565b60008060408385031215611a2157600080fd5b611a2a8361178b565b915060208301358015158114611a3f57600080fd5b809150509250929050565b60008060408385031215611a5d57600080fd5b50508035926020909101359150565b60008060008060808587031215611a8257600080fd5b611a8b8561178b565b9350611a996020860161178b565b925060408501359150606085013567ffffffffffffffff811115611abc57600080fd5b8501601f81018713611acd57600080fd5b611adc878235602084016117e7565b91505092959194509250565b60008060408385031215611afb57600080fd5b611b048361178b565b9150611b126020840161178b565b90509250929050565b600181811c90821680611b2f57607f821691505b602082108103611b4f57634e487b7160e01b600052602260045260246000fd5b50919050565b634e487b7160e01b600052602160045260246000fd5b60008154611b7881611b1b565b808552602060018381168015611b955760018114611baf57611bdd565b60ff1985168884015283151560051b880183019550611bdd565b866000528260002060005b85811015611bd55781548a8201860152908301908401611bba565b890184019650505b505050505092915050565b6001600160a01b0384168152606060208201819052600090611c0c90830185611b6b565b8281036040840152611c1e8185611733565b9695505050505050565b604081526000611c3b6040830185611b6b565b8281036020840152611c4d8185611733565b95945050505050565b634e487b7160e01b600052601160045260246000fd5b600081611c7b57611c7b611c56565b506000190190565b600060018201611c9557611c95611c56565b5060010190565b601f821115610786576000816000526020600020601f850160051c81016020861015611cc55750805b601f850160051c820191505b81811015611ce457828155600101611cd1565b505050505050565b815167ffffffffffffffff811115611d0657611d066117d1565b611d1a81611d148454611b1b565b84611c9c565b602080601f831160018114611d4f5760008415611d375750858301515b600019600386901b1c1916600185901b178555611ce4565b600085815260208120601f198616915b82811015611d7e57888601518255948401946001909101908401611d5f565b5085821015611d9c5787850151600019600388901b60f8161c191681555b5050505050600190811b01905550565b6001600160a01b038716815260c060208201819052600090611dd090830188611733565b8281036040840152611de28188611733565b90508281036060840152611df68187611733565b90508281036080840152611e0a8186611733565b9150508260a0830152979650505050505050565b808201808211156103aa576103aa611c56565b60008151611e4381856020860161170f565b9290920192915050565b6b02a32b632b837b93a103a37960a51b815260008251611e7481600c85016020870161170f565b91909101600c0192915050565b7f416c6c6f777320796f7520746f20706f7374206f6e63652066726f6d20000000815260008351611eb981601d85016020880161170f565b80830190507f2773206163636f756e7420696620796f757220706f7374207061737365732074601d8201527f686520666f6c6c6f77696e6720636865636b20627920746865204c4c4d3a2000603d820152602760f81b80605c8301528451611f2881605d85016020890161170f565b605d920191820152605e01949350505050565b703d913232b9b1b934b83a34b7b7111d101160791b81528751600090611f68816011850160208d0161170f565b6c1116101134b6b0b3b2911d101160991b6011918401918201528851611f9581601e840160208d0161170f565b6b111610113730b6b2911d101160a11b601e92909101918201528751611fc281602a840160208c0161170f565b7f222c202261747472696275746573223a205b7b2274726169745f74797065223a602a92909101918201527f20225820557365726e616d65222c202276616c7565223a202200000000000000604a8201528651612026816063840160208b0161170f565b6120bd61207b6120756063848601017f227d2c207b2274726169745f74797065223a20224c4c4d20736166656775617281526d32111610113b30b63ab2911d101160911b6020820152602e0190565b89611e31565b7f227d2c207b2274726169745f74797065223a202254776565742054696d65204c81526f32b33a111610113b30b63ab2911d101160811b602082015260300190565b91505084815261211f61210f612109602084017f227d2c207b2274726169745f74797065223a202258204e616d65222c20227661815266363ab2911d101160c91b602082015260270190565b86611e31565b63227d5d7d60e01b815260040190565b9a9950505050505050505050565b7f646174613a6170706c69636174696f6e2f6a736f6e3b6261736536342c00000081526000825161216581601d85016020870161170f565b91909101601d0192915050565b6001600160a01b0385811682528416602082015260408101839052608060608201819052600090611c1e90830184611733565b6000602082840312156121b757600080fd5b8151611708816116d5565b6000826121df57634e487b7160e01b600052601260045260246000fd5b500490565b80820281158282048414176103aa576103aa611c5656fe4142434445464748494a4b4c4d4e4f505152535455565758595a6162636465666768696a6b6c6d6e6f707172737475767778797a303132333435363738392b2fa26469706673582212203a5462da8d241fda6f0127d8a242f88031572861873eb44e1ec559cd45691fac64736f6c63430008190033",
        "linkReferences": {}
    },
    "methodIdentifiers": {
        "addTweetTime(uint256,uint256)": "a30c1d42",
        "approve(address,uint256)": "095ea7b3",
        "balanceOf(address)": "70a08231",
        "currentTokenId()": "009a9b7b",
        "getApproved(uint256)": "081812fc",
        "isApprovedForAll(address,address)": "e985e9c5",
        "isWhitelisted(address)": "3af32abf",
        "mintTo(address,uint256,string,string,string,string,bytes32,uint256)": "86fd926e",
        "name()": "06fdde03",
        "nftIdMap(bytes32)": "81ee5e09",
        "owner()": "8da5cb5b",
        "ownerOf(uint256)": "6352211e",
        "redeem(uint256,string,uint8)": "0d4c5fb2",
        "removeMinter(address)": "3092afd5",
        "renounceOwnership()": "715018a6",
        "safeTransferFrom(address,address,uint256)": "42842e0e",
        "safeTransferFrom(address,address,uint256,bytes)": "b88d4fde",
        "setApprovalForAll(address,bool)": "a22cb465",
        "supportsInterface(bytes4)": "01ffc9a7",
        "symbol()": "95d89b41",
        "tokenURI(uint256)": "c87b56dd",
        "transferFrom(address,address,uint256)": "23b872dd",
        "transferOwnership(address)": "f2fde38b",
        "whitelistMinter(address)": "9bb257ad"
    },
    "id": 36
}