{"abi":[{"type":"constructor","inputs":[{"name":"_name","type":"string","internalType":"string"},{"name":"_symbol","type":"string","internalType":"string"},{"name":"_baseURI","type":"string","internalType":"string"},{"name":"initialOwner","type":"address","internalType":"address"}],"stateMutability":"nonpayable"},{"type":"function","name":"approve","inputs":[{"name":"to","type":"address","internalType":"address"},{"name":"tokenId","type":"uint256","internalType":"uint256"}],"outputs":[],"stateMutability":"nonpayable"},{"type":"function","name":"balanceOf","inputs":[{"name":"owner","type":"address","internalType":"address"}],"outputs":[{"name":"","type":"uint256","internalType":"uint256"}],"stateMutability":"view"},{"type":"function","name":"baseURI","inputs":[],"outputs":[{"name":"","type":"string","internalType":"string"}],"stateMutability":"view"},{"type":"function","name":"currentTokenId","inputs":[],"outputs":[{"name":"","type":"uint256","internalType":"uint256"}],"stateMutability":"view"},{"type":"function","name":"getApproved","inputs":[{"name":"tokenId","type":"uint256","internalType":"uint256"}],"outputs":[{"name":"","type":"address","internalType":"address"}],"stateMutability":"view"},{"type":"function","name":"isApprovedForAll","inputs":[{"name":"owner","type":"address","internalType":"address"},{"name":"operator","type":"address","internalType":"address"}],"outputs":[{"name":"","type":"bool","internalType":"bool"}],"stateMutability":"view"},{"type":"function","name":"mintTo","inputs":[{"name":"recipient","type":"address","internalType":"address"},{"name":"x_id","type":"uint256","internalType":"uint256"},{"name":"policy","type":"string","internalType":"string"}],"outputs":[{"name":"","type":"uint256","internalType":"uint256"}],"stateMutability":"nonpayable"},{"type":"function","name":"name","inputs":[],"outputs":[{"name":"","type":"string","internalType":"string"}],"stateMutability":"view"},{"type":"function","name":"owner","inputs":[],"outputs":[{"name":"","type":"address","internalType":"address"}],"stateMutability":"view"},{"type":"function","name":"ownerOf","inputs":[{"name":"tokenId","type":"uint256","internalType":"uint256"}],"outputs":[{"name":"","type":"address","internalType":"address"}],"stateMutability":"view"},{"type":"function","name":"redeem","inputs":[{"name":"tokenId","type":"uint256","internalType":"uint256"},{"name":"content","type":"string","internalType":"string"},{"name":"tokenType","type":"uint8","internalType":"enum NFT.TokenType"}],"outputs":[],"stateMutability":"nonpayable"},{"type":"function","name":"renounceOwnership","inputs":[],"outputs":[],"stateMutability":"nonpayable"},{"type":"function","name":"safeTransferFrom","inputs":[{"name":"from","type":"address","internalType":"address"},{"name":"to","type":"address","internalType":"address"},{"name":"tokenId","type":"uint256","internalType":"uint256"}],"outputs":[],"stateMutability":"nonpayable"},{"type":"function","name":"safeTransferFrom","inputs":[{"name":"from","type":"address","internalType":"address"},{"name":"to","type":"address","internalType":"address"},{"name":"tokenId","type":"uint256","internalType":"uint256"},{"name":"data","type":"bytes","internalType":"bytes"}],"outputs":[],"stateMutability":"nonpayable"},{"type":"function","name":"setApprovalForAll","inputs":[{"name":"operator","type":"address","internalType":"address"},{"name":"approved","type":"bool","internalType":"bool"}],"outputs":[],"stateMutability":"nonpayable"},{"type":"function","name":"supportsInterface","inputs":[{"name":"interfaceId","type":"bytes4","internalType":"bytes4"}],"outputs":[{"name":"","type":"bool","internalType":"bool"}],"stateMutability":"view"},{"type":"function","name":"symbol","inputs":[],"outputs":[{"name":"","type":"string","internalType":"string"}],"stateMutability":"view"},{"type":"function","name":"tokenURI","inputs":[{"name":"tokenId","type":"uint256","internalType":"uint256"}],"outputs":[{"name":"","type":"string","internalType":"string"}],"stateMutability":"view"},{"type":"function","name":"transferFrom","inputs":[{"name":"from","type":"address","internalType":"address"},{"name":"to","type":"address","internalType":"address"},{"name":"tokenId","type":"uint256","internalType":"uint256"}],"outputs":[],"stateMutability":"nonpayable"},{"type":"function","name":"transferOwnership","inputs":[{"name":"newOwner","type":"address","internalType":"address"}],"outputs":[],"stateMutability":"nonpayable"},{"type":"event","name":"Approval","inputs":[{"name":"owner","type":"address","indexed":true,"internalType":"address"},{"name":"approved","type":"address","indexed":true,"internalType":"address"},{"name":"tokenId","type":"uint256","indexed":true,"internalType":"uint256"}],"anonymous":false},{"type":"event","name":"ApprovalForAll","inputs":[{"name":"owner","type":"address","indexed":true,"internalType":"address"},{"name":"operator","type":"address","indexed":true,"internalType":"address"},{"name":"approved","type":"bool","indexed":false,"internalType":"bool"}],"anonymous":false},{"type":"event","name":"NewTokenData","inputs":[{"name":"tokenId","type":"uint256","indexed":true,"internalType":"uint256"},{"name":"x_id","type":"uint256","indexed":true,"internalType":"uint256"},{"name":"to","type":"address","indexed":false,"internalType":"address"},{"name":"policy","type":"string","indexed":false,"internalType":"string"}],"anonymous":false},{"type":"event","name":"OwnershipTransferred","inputs":[{"name":"previousOwner","type":"address","indexed":true,"internalType":"address"},{"name":"newOwner","type":"address","indexed":true,"internalType":"address"}],"anonymous":false},{"type":"event","name":"RedeemLike","inputs":[{"name":"tokenId","type":"uint256","indexed":true,"internalType":"uint256"},{"name":"x_id","type":"uint256","indexed":true,"internalType":"uint256"},{"name":"policy","type":"string","indexed":false,"internalType":"string"},{"name":"tweetId","type":"string","indexed":false,"internalType":"string"}],"anonymous":false},{"type":"event","name":"RedeemTweet","inputs":[{"name":"tokenId","type":"uint256","indexed":true,"internalType":"uint256"},{"name":"x_id","type":"uint256","indexed":true,"internalType":"uint256"},{"name":"policy","type":"string","indexed":false,"internalType":"string"},{"name":"content","type":"string","indexed":false,"internalType":"string"}],"anonymous":false},{"type":"event","name":"Transfer","inputs":[{"name":"from","type":"address","indexed":true,"internalType":"address"},{"name":"to","type":"address","indexed":true,"internalType":"address"},{"name":"tokenId","type":"uint256","indexed":true,"internalType":"uint256"}],"anonymous":false},{"type":"error","name":"ERC721IncorrectOwner","inputs":[{"name":"sender","type":"address","internalType":"address"},{"name":"tokenId","type":"uint256","internalType":"uint256"},{"name":"owner","type":"address","internalType":"address"}]},{"type":"error","name":"ERC721InsufficientApproval","inputs":[{"name":"operator","type":"address","internalType":"address"},{"name":"tokenId","type":"uint256","internalType":"uint256"}]},{"type":"error","name":"ERC721InvalidApprover","inputs":[{"name":"approver","type":"address","internalType":"address"}]},{"type":"error","name":"ERC721InvalidOperator","inputs":[{"name":"operator","type":"address","internalType":"address"}]},{"type":"error","name":"ERC721InvalidOwner","inputs":[{"name":"owner","type":"address","internalType":"address"}]},{"type":"error","name":"ERC721InvalidReceiver","inputs":[{"name":"receiver","type":"address","internalType":"address"}]},{"type":"error","name":"ERC721InvalidSender","inputs":[{"name":"sender","type":"address","internalType":"address"}]},{"type":"error","name":"ERC721NonexistentToken","inputs":[{"name":"tokenId","type":"uint256","internalType":"uint256"}]},{"type":"error","name":"NonExistentTokenURI","inputs":[]},{"type":"error","name":"OwnableInvalidOwner","inputs":[{"name":"owner","type":"address","internalType":"address"}]},{"type":"error","name":"OwnableUnauthorizedAccount","inputs":[{"name":"account","type":"address","internalType":"address"}]}],"bytecode":{"object":"0x608060405234801561001057600080fd5b50604051611b82380380611b8283398101604081905261002f916101ac565b808484600061003e83826102df565b50600161004b82826102df565b5050506001600160a01b03811661007c57604051631e4fbdf760e01b81526000600482015260240160405180910390fd5b6100858161009c565b50600861009283826102df565b505050505061039e565b600680546001600160a01b038381166001600160a01b0319831681179093556040519116919082907f8be0079c531659141344cd1fd0a4f28419497f9722a3daafe3b4186f6b6457e090600090a35050565b634e487b7160e01b600052604160045260246000fd5b600082601f83011261011557600080fd5b81516001600160401b038082111561012f5761012f6100ee565b604051601f8301601f19908116603f01168101908282118183101715610157576101576100ee565b816040528381526020925086602085880101111561017457600080fd5b600091505b838210156101965785820183015181830184015290820190610179565b6000602085830101528094505050505092915050565b600080600080608085870312156101c257600080fd5b84516001600160401b03808211156101d957600080fd5b6101e588838901610104565b955060208701519150808211156101fb57600080fd5b61020788838901610104565b9450604087015191508082111561021d57600080fd5b5061022a87828801610104565b606087015190935090506001600160a01b038116811461024957600080fd5b939692955090935050565b600181811c9082168061026857607f821691505b60208210810361028857634e487b7160e01b600052602260045260246000fd5b50919050565b601f8211156102da576000816000526020600020601f850160051c810160208610156102b75750805b601f850160051c820191505b818110156102d6578281556001016102c3565b5050505b505050565b81516001600160401b038111156102f8576102f86100ee565b61030c816103068454610254565b8461028e565b602080601f83116001811461034157600084156103295750858301515b600019600386901b1c1916600185901b1785556102d6565b600085815260208120601f198616915b8281101561037057888601518255948401946001909101908401610351565b508582101561038e5787850151600019600388901b60f8161c191681555b5050505050600190811b01905550565b6117d5806103ad6000396000f3fe608060405234801561001057600080fd5b506004361061012b5760003560e01c806370a08231116100ad578063a22cb46511610071578063a22cb4651461025f578063b88d4fde14610272578063c87b56dd14610285578063e985e9c514610298578063f2fde38b146102ab57600080fd5b806370a0823114610218578063715018a61461022b5780638da5cb5b1461023357806395d89b41146102445780639f6ed25f1461024c57600080fd5b80630d4c5fb2116100f45780630d4c5fb2146101c457806323b872dd146101d757806342842e0e146101ea5780636352211e146101fd5780636c0360eb1461021057600080fd5b80629a9b7b1461013057806301ffc9a71461014c57806306fdde031461016f578063081812fc14610184578063095ea7b3146101af575b600080fd5b61013960095481565b6040519081526020015b60405180910390f35b61015f61015a36600461115b565b6102be565b6040519015158152602001610143565b610177610310565b60405161014391906111cf565b6101976101923660046111e2565b6103a2565b6040516001600160a01b039091168152602001610143565b6101c26101bd366004611217565b6103cb565b005b6101c26101d23660046112ed565b6103da565b6101c26101e536600461134c565b610640565b6101c26101f836600461134c565b6106c5565b61019761020b3660046111e2565b6106e5565b6101776106f0565b610139610226366004611388565b61077e565b6101c26107c6565b6006546001600160a01b0316610197565b6101776107da565b61013961025a3660046113a3565b6107e9565b6101c261026d3660046113fa565b610895565b6101c2610280366004611436565b6108a0565b6101776102933660046111e2565b6108b7565b61015f6102a63660046114b2565b610947565b6101c26102b9366004611388565b610975565b60006001600160e01b031982166380ac58cd60e01b14806102ef57506001600160e01b03198216635b5e139f60e01b145b8061030a57506301ffc9a760e01b6001600160e01b03198316145b92915050565b60606000805461031f906114e5565b80601f016020809104026020016040519081016040528092919081815260200182805461034b906114e5565b80156103985780601f1061036d57610100808354040283529160200191610398565b820191906000526020600020905b81548152906001019060200180831161037b57829003601f168201915b5050505050905090565b60006103ad826109b3565b506000828152600460205260409020546001600160a01b031661030a565b6103d68282336109ec565b5050565b336103e4846106e5565b6001600160a01b0316148061040357506006546001600160a01b031633145b6104705760405162461bcd60e51b815260206004820152603360248201527f43616c6c6572206973206e6f742074686520746f6b656e206f776e6572206f72604482015272103a34329031b7b73a3930b1ba1037bbb732b960691b60648201526084015b60405180910390fd5b600060076000858152602001908152602001600020604051806040016040529081600082015481526020016001820180546104aa906114e5565b80601f01602080910402602001604051908101604052809291908181526020018280546104d6906114e5565b80156105235780601f106104f857610100808354040283529160200191610523565b820191906000526020600020905b81548152906001019060200180831161050657829003601f168201915b5050505050815250509050600060018111156105415761054161151f565b8260018111156105535761055361151f565b036105a0578060000151847fcbf6d13c916c79c336feb29e01cfb33cb0b46914ba0bc6ba415bfc505f4c80fa836020015186604051610593929190611535565b60405180910390a3610631565b60018260018111156105b4576105b461151f565b036105f4578060000151847f299aad4bd0de79fecfce5a849e59221a503c3677a763f7948ffa1e22f704ab1b836020015186604051610593929190611535565b60405162461bcd60e51b8152602060048201526012602482015271496e76616c696420746f6b656e207479706560701b6044820152606401610467565b61063a846109f9565b50505050565b6001600160a01b03821661066a57604051633250574960e11b815260006004820152602401610467565b6000610677838333610a34565b9050836001600160a01b0316816001600160a01b03161461063a576040516364283d7b60e01b81526001600160a01b0380861660048301526024820184905282166044820152606401610467565b6106e0838383604051806020016040528060008152506108a0565b505050565b600061030a826109b3565b600880546106fd906114e5565b80601f0160208091040260200160405190810160405280929190818152602001828054610729906114e5565b80156107765780601f1061074b57610100808354040283529160200191610776565b820191906000526020600020905b81548152906001019060200180831161075957829003601f168201915b505050505081565b60006001600160a01b0382166107aa576040516322718ad960e21b815260006004820152602401610467565b506001600160a01b031660009081526003602052604090205490565b6107ce610b2d565b6107d86000610b5a565b565b60606001805461031f906114e5565b60006107f3610b2d565b600060096000815461080490611563565b918290555090506108158582610bac565b604080518082018252858152602080820186815260008581526007909252929020815181559151909190600182019061084e90826115da565b5090505083817f5211c4bb751b2215aaefcc61d26596cf5003513409bf122ed7140ec11e8f7f40878660405161088592919061169a565b60405180910390a3949350505050565b6103d6338383610bc6565b6108ab848484610640565b61063a84848484610c65565b606060006108c4836106e5565b6001600160a01b0316036108eb5760405163d872946b60e01b815260040160405180910390fd5b6000600880546108fa906114e5565b905011610916576040518060200160405280600081525061030a565b600861092183610d8e565b6040516020016109329291906116be565b60405160208183030381529060405292915050565b6001600160a01b03918216600090815260056020908152604080832093909416825291909152205460ff1690565b61097d610b2d565b6001600160a01b0381166109a757604051631e4fbdf760e01b815260006004820152602401610467565b6109b081610b5a565b50565b6000818152600260205260408120546001600160a01b03168061030a57604051637e27328960e01b815260048101849052602401610467565b6106e08383836001610e21565b6000610a086000836000610a34565b90506001600160a01b0381166103d657604051637e27328960e01b815260048101839052602401610467565b6000828152600260205260408120546001600160a01b0390811690831615610a6157610a61818486610f27565b6001600160a01b03811615610a9f57610a7e600085600080610e21565b6001600160a01b038116600090815260036020526040902080546000190190555b6001600160a01b03851615610ace576001600160a01b0385166000908152600360205260409020805460010190555b60008481526002602052604080822080546001600160a01b0319166001600160a01b0389811691821790925591518793918516917fddf252ad1be2c89b69c2b068fc378daa952ba7f163c4a11628f55a4df523b3ef91a4949350505050565b6006546001600160a01b031633146107d85760405163118cdaa760e01b8152336004820152602401610467565b600680546001600160a01b038381166001600160a01b0319831681179093556040519116919082907f8be0079c531659141344cd1fd0a4f28419497f9722a3daafe3b4186f6b6457e090600090a35050565b6103d6828260405180602001604052806000815250610f8b565b6001600160a01b038216610bf857604051630b61174360e31b81526001600160a01b0383166004820152602401610467565b6001600160a01b03838116600081815260056020908152604080832094871680845294825291829020805460ff191686151590811790915591519182527f17307eab39ab6107e8899845ad3d59bd9653f200f220920489ca2b5937696c31910160405180910390a3505050565b6001600160a01b0383163b1561063a57604051630a85bd0160e11b81526001600160a01b0384169063150b7a0290610ca7903390889087908790600401611745565b6020604051808303816000875af1925050508015610ce2575060408051601f3d908101601f19168201909252610cdf91810190611782565b60015b610d4b573d808015610d10576040519150601f19603f3d011682016040523d82523d6000602084013e610d15565b606091505b508051600003610d4357604051633250574960e11b81526001600160a01b0385166004820152602401610467565b805181602001fd5b6001600160e01b03198116630a85bd0160e11b14610d8757604051633250574960e11b81526001600160a01b0385166004820152602401610467565b5050505050565b60606000610d9b83610fa2565b600101905060008167ffffffffffffffff811115610dbb57610dbb611241565b6040519080825280601f01601f191660200182016040528015610de5576020820181803683370190505b5090508181016020015b600019016f181899199a1a9b1b9c1cb0b131b232b360811b600a86061a8153600a8504945084610def57509392505050565b8080610e3557506001600160a01b03821615155b15610ef7576000610e45846109b3565b90506001600160a01b03831615801590610e715750826001600160a01b0316816001600160a01b031614155b8015610e845750610e828184610947565b155b15610ead5760405163a9fbf51f60e01b81526001600160a01b0384166004820152602401610467565b8115610ef55783856001600160a01b0316826001600160a01b03167f8c5be1e5ebec7d5bd14f71427d1e84f3dd0314c0f7b2291e5b200ac8c7c3b92560405160405180910390a45b505b5050600090815260046020526040902080546001600160a01b0319166001600160a01b0392909216919091179055565b610f3283838361107a565b6106e0576001600160a01b038316610f6057604051637e27328960e01b815260048101829052602401610467565b60405163177e802f60e01b81526001600160a01b038316600482015260248101829052604401610467565b610f9583836110e0565b6106e06000848484610c65565b60008072184f03e93ff9f4daa797ed6e38ed64bf6a1f0160401b8310610fe15772184f03e93ff9f4daa797ed6e38ed64bf6a1f0160401b830492506040015b6d04ee2d6d415b85acef8100000000831061100d576d04ee2d6d415b85acef8100000000830492506020015b662386f26fc10000831061102b57662386f26fc10000830492506010015b6305f5e1008310611043576305f5e100830492506008015b612710831061105757612710830492506004015b60648310611069576064830492506002015b600a831061030a5760010192915050565b60006001600160a01b038316158015906110d85750826001600160a01b0316846001600160a01b031614806110b457506110b48484610947565b806110d857506000828152600460205260409020546001600160a01b038481169116145b949350505050565b6001600160a01b03821661110a57604051633250574960e11b815260006004820152602401610467565b600061111883836000610a34565b90506001600160a01b038116156106e0576040516339e3563760e11b815260006004820152602401610467565b6001600160e01b0319811681146109b057600080fd5b60006020828403121561116d57600080fd5b813561117881611145565b9392505050565b60005b8381101561119a578181015183820152602001611182565b50506000910152565b600081518084526111bb81602086016020860161117f565b601f01601f19169290920160200192915050565b60208152600061117860208301846111a3565b6000602082840312156111f457600080fd5b5035919050565b80356001600160a01b038116811461121257600080fd5b919050565b6000806040838503121561122a57600080fd5b611233836111fb565b946020939093013593505050565b634e487b7160e01b600052604160045260246000fd5b600067ffffffffffffffff8084111561127257611272611241565b604051601f8501601f19908116603f0116810190828211818310171561129a5761129a611241565b816040528093508581528686860111156112b357600080fd5b858560208301376000602087830101525050509392505050565b600082601f8301126112de57600080fd5b61117883833560208501611257565b60008060006060848603121561130257600080fd5b83359250602084013567ffffffffffffffff81111561132057600080fd5b61132c868287016112cd565b92505060408401356002811061134157600080fd5b809150509250925092565b60008060006060848603121561136157600080fd5b61136a846111fb565b9250611378602085016111fb565b9150604084013590509250925092565b60006020828403121561139a57600080fd5b611178826111fb565b6000806000606084860312156113b857600080fd5b6113c1846111fb565b925060208401359150604084013567ffffffffffffffff8111156113e457600080fd5b6113f0868287016112cd565b9150509250925092565b6000806040838503121561140d57600080fd5b611416836111fb565b91506020830135801515811461142b57600080fd5b809150509250929050565b6000806000806080858703121561144c57600080fd5b611455856111fb565b9350611463602086016111fb565b925060408501359150606085013567ffffffffffffffff81111561148657600080fd5b8501601f8101871361149757600080fd5b6114a687823560208401611257565b91505092959194509250565b600080604083850312156114c557600080fd5b6114ce836111fb565b91506114dc602084016111fb565b90509250929050565b600181811c908216806114f957607f821691505b60208210810361151957634e487b7160e01b600052602260045260246000fd5b50919050565b634e487b7160e01b600052602160045260246000fd5b60408152600061154860408301856111a3565b828103602084015261155a81856111a3565b95945050505050565b60006001820161158357634e487b7160e01b600052601160045260246000fd5b5060010190565b601f8211156106e0576000816000526020600020601f850160051c810160208610156115b35750805b601f850160051c820191505b818110156115d2578281556001016115bf565b505050505050565b815167ffffffffffffffff8111156115f4576115f4611241565b6116088161160284546114e5565b8461158a565b602080601f83116001811461163d57600084156116255750858301515b600019600386901b1c1916600185901b1785556115d2565b600085815260208120601f198616915b8281101561166c5788860151825594840194600190910190840161164d565b508582101561168a5787850151600019600388901b60f8161c191681555b5050505050600190811b01905550565b6001600160a01b03831681526040602082018190526000906110d8908301846111a3565b60008084546116cc816114e5565b600182811680156116e457600181146116f957611728565b60ff1984168752821515830287019450611728565b8860005260208060002060005b8581101561171f5781548a820152908401908201611706565b50505082870194505b50505050835161173c81836020880161117f565b01949350505050565b6001600160a01b0385811682528416602082015260408101839052608060608201819052600090611778908301846111a3565b9695505050505050565b60006020828403121561179457600080fd5b81516111788161114556fea2646970667358221220ce3bfc0ad051899c97b49b77a7dd00a340ae1e83f400bd844243573591a55b7a64736f6c63430008190033","linkReferences":{}},"methodIdentifiers":{"approve(address,uint256)":"095ea7b3","balanceOf(address)":"70a08231","baseURI()":"6c0360eb","currentTokenId()":"009a9b7b","getApproved(uint256)":"081812fc","isApprovedForAll(address,address)":"e985e9c5","mintTo(address,uint256,string)":"9f6ed25f","name()":"06fdde03","owner()":"8da5cb5b","ownerOf(uint256)":"6352211e","redeem(uint256,string,uint8)":"0d4c5fb2","renounceOwnership()":"715018a6","safeTransferFrom(address,address,uint256)":"42842e0e","safeTransferFrom(address,address,uint256,bytes)":"b88d4fde","setApprovalForAll(address,bool)":"a22cb465","supportsInterface(bytes4)":"01ffc9a7","symbol()":"95d89b41","tokenURI(uint256)":"c87b56dd","transferFrom(address,address,uint256)":"23b872dd","transferOwnership(address)":"f2fde38b"},"id":12}