{
   "_format": "hh-sol-artifact-1",
   "contractName": "NFT",
   "sourceName": "contracts/NFT.sol",
   "abi": [
      {
         "inputs": [
            {
               "internalType": "string",
               "name": "_name",
               "type": "string"
            },
            {
               "internalType": "string",
               "name": "_symbol",
               "type": "string"
            },
            {
               "internalType": "address",
               "name": "initialOwner",
               "type": "address"
            }
         ],
         "stateMutability": "nonpayable",
         "type": "constructor"
      },
      {
         "inputs": [
            {
               "internalType": "address",
               "name": "sender",
               "type": "address"
            },
            {
               "internalType": "uint256",
               "name": "tokenId",
               "type": "uint256"
            },
            {
               "internalType": "address",
               "name": "owner",
               "type": "address"
            }
         ],
         "name": "ERC721IncorrectOwner",
         "type": "error"
      },
      {
         "inputs": [
            {
               "internalType": "address",
               "name": "operator",
               "type": "address"
            },
            {
               "internalType": "uint256",
               "name": "tokenId",
               "type": "uint256"
            }
         ],
         "name": "ERC721InsufficientApproval",
         "type": "error"
      },
      {
         "inputs": [
            {
               "internalType": "address",
               "name": "approver",
               "type": "address"
            }
         ],
         "name": "ERC721InvalidApprover",
         "type": "error"
      },
      {
         "inputs": [
            {
               "internalType": "address",
               "name": "operator",
               "type": "address"
            }
         ],
         "name": "ERC721InvalidOperator",
         "type": "error"
      },
      {
         "inputs": [
            {
               "internalType": "address",
               "name": "owner",
               "type": "address"
            }
         ],
         "name": "ERC721InvalidOwner",
         "type": "error"
      },
      {
         "inputs": [
            {
               "internalType": "address",
               "name": "receiver",
               "type": "address"
            }
         ],
         "name": "ERC721InvalidReceiver",
         "type": "error"
      },
      {
         "inputs": [
            {
               "internalType": "address",
               "name": "sender",
               "type": "address"
            }
         ],
         "name": "ERC721InvalidSender",
         "type": "error"
      },
      {
         "inputs": [
            {
               "internalType": "uint256",
               "name": "tokenId",
               "type": "uint256"
            }
         ],
         "name": "ERC721NonexistentToken",
         "type": "error"
      },
      {
         "inputs": [],
         "name": "NonExistentTokenURI",
         "type": "error"
      },
      {
         "inputs": [
            {
               "internalType": "address",
               "name": "owner",
               "type": "address"
            }
         ],
         "name": "OwnableInvalidOwner",
         "type": "error"
      },
      {
         "inputs": [
            {
               "internalType": "address",
               "name": "account",
               "type": "address"
            }
         ],
         "name": "OwnableUnauthorizedAccount",
         "type": "error"
      },
      {
         "anonymous": false,
         "inputs": [
            {
               "indexed": true,
               "internalType": "address",
               "name": "owner",
               "type": "address"
            },
            {
               "indexed": true,
               "internalType": "address",
               "name": "approved",
               "type": "address"
            },
            {
               "indexed": true,
               "internalType": "uint256",
               "name": "tokenId",
               "type": "uint256"
            }
         ],
         "name": "Approval",
         "type": "event"
      },
      {
         "anonymous": false,
         "inputs": [
            {
               "indexed": true,
               "internalType": "address",
               "name": "owner",
               "type": "address"
            },
            {
               "indexed": true,
               "internalType": "address",
               "name": "operator",
               "type": "address"
            },
            {
               "indexed": false,
               "internalType": "bool",
               "name": "approved",
               "type": "bool"
            }
         ],
         "name": "ApprovalForAll",
         "type": "event"
      },
      {
         "anonymous": false,
         "inputs": [
            {
               "indexed": true,
               "internalType": "uint256",
               "name": "tokenId",
               "type": "uint256"
            },
            {
               "indexed": true,
               "internalType": "uint256",
               "name": "x_id",
               "type": "uint256"
            },
            {
               "indexed": false,
               "internalType": "address",
               "name": "to",
               "type": "address"
            },
            {
               "indexed": false,
               "internalType": "string",
               "name": "policy",
               "type": "string"
            },
            {
               "indexed": false,
               "internalType": "string",
               "name": "name",
               "type": "string"
            },
            {
               "indexed": false,
               "internalType": "string",
               "name": "username",
               "type": "string"
            },
            {
               "indexed": false,
               "internalType": "string",
               "name": "pfp",
               "type": "string"
            },
            {
               "indexed": false,
               "internalType": "string",
               "name": "event_pfp",
               "type": "string"
            }
         ],
         "name": "NewTokenData",
         "type": "event"
      },
      {
         "anonymous": false,
         "inputs": [
            {
               "indexed": true,
               "internalType": "address",
               "name": "previousOwner",
               "type": "address"
            },
            {
               "indexed": true,
               "internalType": "address",
               "name": "newOwner",
               "type": "address"
            }
         ],
         "name": "OwnershipTransferred",
         "type": "event"
      },
      {
         "anonymous": false,
         "inputs": [
            {
               "indexed": true,
               "internalType": "uint256",
               "name": "tokenId",
               "type": "uint256"
            },
            {
               "indexed": true,
               "internalType": "uint256",
               "name": "x_id",
               "type": "uint256"
            },
            {
               "indexed": false,
               "internalType": "string",
               "name": "policy",
               "type": "string"
            },
            {
               "indexed": false,
               "internalType": "string",
               "name": "tweetId",
               "type": "string"
            }
         ],
         "name": "RedeemLike",
         "type": "event"
      },
      {
         "anonymous": false,
         "inputs": [
            {
               "indexed": true,
               "internalType": "uint256",
               "name": "tokenId",
               "type": "uint256"
            },
            {
               "indexed": true,
               "internalType": "uint256",
               "name": "x_id",
               "type": "uint256"
            },
            {
               "indexed": false,
               "internalType": "address",
               "name": "addr",
               "type": "address"
            },
            {
               "indexed": false,
               "internalType": "string",
               "name": "policy",
               "type": "string"
            },
            {
               "indexed": false,
               "internalType": "string",
               "name": "content",
               "type": "string"
            }
         ],
         "name": "RedeemTweet",
         "type": "event"
      },
      {
         "anonymous": false,
         "inputs": [
            {
               "indexed": true,
               "internalType": "address",
               "name": "minter",
               "type": "address"
            }
         ],
         "name": "RemoveMinter",
         "type": "event"
      },
      {
         "anonymous": false,
         "inputs": [
            {
               "indexed": true,
               "internalType": "address",
               "name": "from",
               "type": "address"
            },
            {
               "indexed": true,
               "internalType": "address",
               "name": "to",
               "type": "address"
            },
            {
               "indexed": true,
               "internalType": "uint256",
               "name": "tokenId",
               "type": "uint256"
            }
         ],
         "name": "Transfer",
         "type": "event"
      },
      {
         "anonymous": false,
         "inputs": [
            {
               "indexed": true,
               "internalType": "address",
               "name": "minter",
               "type": "address"
            }
         ],
         "name": "WhitelistMinter",
         "type": "event"
      },
      {
         "inputs": [
            {
               "internalType": "address",
               "name": "to",
               "type": "address"
            },
            {
               "internalType": "uint256",
               "name": "tokenId",
               "type": "uint256"
            }
         ],
         "name": "approve",
         "outputs": [],
         "stateMutability": "nonpayable",
         "type": "function"
      },
      {
         "inputs": [
            {
               "internalType": "address",
               "name": "owner",
               "type": "address"
            }
         ],
         "name": "balanceOf",
         "outputs": [
            {
               "internalType": "uint256",
               "name": "",
               "type": "uint256"
            }
         ],
         "stateMutability": "view",
         "type": "function"
      },
      {
         "inputs": [],
         "name": "currentTokenId",
         "outputs": [
            {
               "internalType": "uint256",
               "name": "",
               "type": "uint256"
            }
         ],
         "stateMutability": "view",
         "type": "function"
      },
      {
         "inputs": [
            {
               "internalType": "uint256",
               "name": "tokenId",
               "type": "uint256"
            }
         ],
         "name": "getApproved",
         "outputs": [
            {
               "internalType": "address",
               "name": "",
               "type": "address"
            }
         ],
         "stateMutability": "view",
         "type": "function"
      },
      {
         "inputs": [
            {
               "internalType": "address",
               "name": "owner",
               "type": "address"
            },
            {
               "internalType": "address",
               "name": "operator",
               "type": "address"
            }
         ],
         "name": "isApprovedForAll",
         "outputs": [
            {
               "internalType": "bool",
               "name": "",
               "type": "bool"
            }
         ],
         "stateMutability": "view",
         "type": "function"
      },
      {
         "inputs": [
            {
               "internalType": "address",
               "name": "",
               "type": "address"
            }
         ],
         "name": "isWhitelisted",
         "outputs": [
            {
               "internalType": "bool",
               "name": "",
               "type": "bool"
            }
         ],
         "stateMutability": "view",
         "type": "function"
      },
      {
         "inputs": [
            {
               "internalType": "address",
               "name": "recipient",
               "type": "address"
            },
            {
               "internalType": "uint256",
               "name": "x_id",
               "type": "uint256"
            },
            {
               "internalType": "string",
               "name": "policy",
               "type": "string"
            },
            {
               "internalType": "string",
               "name": "name",
               "type": "string"
            },
            {
               "internalType": "string",
               "name": "username",
               "type": "string"
            },
            {
               "internalType": "string",
               "name": "pfp",
               "type": "string"
            },
            {
               "internalType": "string",
               "name": "event_pfp",
               "type": "string"
            },
            {
               "internalType": "bytes32",
               "name": "nftIdHash",
               "type": "bytes32"
            }
         ],
         "name": "mintTo",
         "outputs": [
            {
               "internalType": "uint256",
               "name": "",
               "type": "uint256"
            }
         ],
         "stateMutability": "nonpayable",
         "type": "function"
      },
      {
         "inputs": [],
         "name": "name",
         "outputs": [
            {
               "internalType": "string",
               "name": "",
               "type": "string"
            }
         ],
         "stateMutability": "view",
         "type": "function"
      },
      {
         "inputs": [
            {
               "internalType": "bytes32",
               "name": "",
               "type": "bytes32"
            }
         ],
         "name": "nftIdMap",
         "outputs": [
            {
               "internalType": "uint256",
               "name": "",
               "type": "uint256"
            }
         ],
         "stateMutability": "view",
         "type": "function"
      },
      {
         "inputs": [],
         "name": "owner",
         "outputs": [
            {
               "internalType": "address",
               "name": "",
               "type": "address"
            }
         ],
         "stateMutability": "view",
         "type": "function"
      },
      {
         "inputs": [
            {
               "internalType": "uint256",
               "name": "tokenId",
               "type": "uint256"
            }
         ],
         "name": "ownerOf",
         "outputs": [
            {
               "internalType": "address",
               "name": "",
               "type": "address"
            }
         ],
         "stateMutability": "view",
         "type": "function"
      },
      {
         "inputs": [
            {
               "internalType": "uint256",
               "name": "tokenId",
               "type": "uint256"
            },
            {
               "internalType": "string",
               "name": "content",
               "type": "string"
            },
            {
               "internalType": "enum NFT.TokenType",
               "name": "tokenType",
               "type": "uint8"
            }
         ],
         "name": "redeem",
         "outputs": [],
         "stateMutability": "nonpayable",
         "type": "function"
      },
      {
         "inputs": [
            {
               "internalType": "address",
               "name": "minter",
               "type": "address"
            }
         ],
         "name": "removeMinter",
         "outputs": [],
         "stateMutability": "nonpayable",
         "type": "function"
      },
      {
         "inputs": [],
         "name": "renounceOwnership",
         "outputs": [],
         "stateMutability": "nonpayable",
         "type": "function"
      },
      {
         "inputs": [
            {
               "internalType": "address",
               "name": "from",
               "type": "address"
            },
            {
               "internalType": "address",
               "name": "to",
               "type": "address"
            },
            {
               "internalType": "uint256",
               "name": "tokenId",
               "type": "uint256"
            }
         ],
         "name": "safeTransferFrom",
         "outputs": [],
         "stateMutability": "nonpayable",
         "type": "function"
      },
      {
         "inputs": [
            {
               "internalType": "address",
               "name": "from",
               "type": "address"
            },
            {
               "internalType": "address",
               "name": "to",
               "type": "address"
            },
            {
               "internalType": "uint256",
               "name": "tokenId",
               "type": "uint256"
            },
            {
               "internalType": "bytes",
               "name": "data",
               "type": "bytes"
            }
         ],
         "name": "safeTransferFrom",
         "outputs": [],
         "stateMutability": "nonpayable",
         "type": "function"
      },
      {
         "inputs": [
            {
               "internalType": "address",
               "name": "operator",
               "type": "address"
            },
            {
               "internalType": "bool",
               "name": "approved",
               "type": "bool"
            }
         ],
         "name": "setApprovalForAll",
         "outputs": [],
         "stateMutability": "nonpayable",
         "type": "function"
      },
      {
         "inputs": [
            {
               "internalType": "bytes4",
               "name": "interfaceId",
               "type": "bytes4"
            }
         ],
         "name": "supportsInterface",
         "outputs": [
            {
               "internalType": "bool",
               "name": "",
               "type": "bool"
            }
         ],
         "stateMutability": "view",
         "type": "function"
      },
      {
         "inputs": [],
         "name": "symbol",
         "outputs": [
            {
               "internalType": "string",
               "name": "",
               "type": "string"
            }
         ],
         "stateMutability": "view",
         "type": "function"
      },
      {
         "inputs": [
            {
               "internalType": "uint256",
               "name": "tokenId",
               "type": "uint256"
            }
         ],
         "name": "tokenURI",
         "outputs": [
            {
               "internalType": "string",
               "name": "",
               "type": "string"
            }
         ],
         "stateMutability": "view",
         "type": "function"
      },
      {
         "inputs": [
            {
               "internalType": "address",
               "name": "from",
               "type": "address"
            },
            {
               "internalType": "address",
               "name": "to",
               "type": "address"
            },
            {
               "internalType": "uint256",
               "name": "tokenId",
               "type": "uint256"
            }
         ],
         "name": "transferFrom",
         "outputs": [],
         "stateMutability": "nonpayable",
         "type": "function"
      },
      {
         "inputs": [
            {
               "internalType": "address",
               "name": "newOwner",
               "type": "address"
            }
         ],
         "name": "transferOwnership",
         "outputs": [],
         "stateMutability": "nonpayable",
         "type": "function"
      },
      {
         "inputs": [
            {
               "internalType": "address",
               "name": "minter",
               "type": "address"
            }
         ],
         "name": "whitelistMinter",
         "outputs": [],
         "stateMutability": "nonpayable",
         "type": "function"
      }
   ],
   "bytecode": "0x60806040523480156200001157600080fd5b50604051620029af380380620029af8339810160408190526200003491620001d7565b8083836000620000458382620002f5565b506001620000548282620002f5565b5050506001600160a01b0381166200008657604051631e4fbdf760e01b81526000600482015260240160405180910390fd5b6200009181620000bd565b506001600160a01b03166000908152600960205260409020805460ff1916600117905550620003c19050565b600680546001600160a01b038381166001600160a01b0319831681179093556040519116919082907f8be0079c531659141344cd1fd0a4f28419497f9722a3daafe3b4186f6b6457e090600090a35050565b634e487b7160e01b600052604160045260246000fd5b600082601f8301126200013757600080fd5b81516001600160401b03808211156200015457620001546200010f565b604051601f8301601f19908116603f011681019082821181831017156200017f576200017f6200010f565b81604052838152602092508660208588010111156200019d57600080fd5b600091505b83821015620001c15785820183015181830184015290820190620001a2565b6000602085830101528094505050505092915050565b600080600060608486031215620001ed57600080fd5b83516001600160401b03808211156200020557600080fd5b620002138783880162000125565b945060208601519150808211156200022a57600080fd5b50620002398682870162000125565b604086015190935090506001600160a01b03811681146200025957600080fd5b809150509250925092565b600181811c908216806200027957607f821691505b6020821081036200029a57634e487b7160e01b600052602260045260246000fd5b50919050565b601f821115620002f0576000816000526020600020601f850160051c81016020861015620002cb5750805b601f850160051c820191505b81811015620002ec57828155600101620002d7565b5050505b505050565b81516001600160401b038111156200031157620003116200010f565b620003298162000322845462000264565b84620002a0565b602080601f831160018114620003615760008415620003485750858301515b600019600386901b1c1916600185901b178555620002ec565b600085815260208120601f198616915b82811015620003925788860151825594840194600190910190840162000371565b5085821015620003b15787850151600019600388901b60f8161c191681555b5050505050600190811b01905550565b6125de80620003d16000396000f3fe608060405234801561001057600080fd5b506004361061014c5760003560e01c806370a08231116100c35780639fc009871161007c5780639fc00987146102ce578063a22cb465146102e1578063b88d4fde146102f4578063c87b56dd14610307578063e985e9c51461031a578063f2fde38b1461032d57600080fd5b806370a0823114610267578063715018a61461027a57806381ee5e09146102825780638da5cb5b146102a257806395d89b41146102b35780639bb257ad146102bb57600080fd5b80630d4c5fb2116101155780630d4c5fb2146101e557806323b872dd146101f85780633092afd51461020b5780633af32abf1461021e57806342842e0e146102415780636352211e1461025457600080fd5b80629a9b7b1461015157806301ffc9a71461016d57806306fdde0314610190578063081812fc146101a5578063095ea7b3146101d0575b600080fd5b61015a600a5481565b6040519081526020015b60405180910390f35b61018061017b366004611976565b610340565b6040519015158152602001610164565b610198610392565b60405161016491906119e3565b6101b86101b33660046119f6565b610424565b6040516001600160a01b039091168152602001610164565b6101e36101de366004611a2b565b61044d565b005b6101e36101f3366004611b01565b61045c565b6101e3610206366004611b60565b61091e565b6101e3610219366004611b9c565b6109a3565b61018061022c366004611b9c565b60096020526000908152604090205460ff1681565b6101e361024f366004611b60565b6109f4565b6101b86102623660046119f6565b610a14565b61015a610275366004611b9c565b610a1f565b6101e3610a67565b61015a6102903660046119f6565b60076020526000908152604090205481565b6006546001600160a01b03166101b8565b610198610a7b565b6101e36102c9366004611b9c565b610a8a565b61015a6102dc366004611bb7565b610ade565b6101e36102ef366004611cad565b610cb4565b6101e3610302366004611ce9565b610cbf565b6101986103153660046119f6565b610cd7565b610180610328366004611d65565b611122565b6101e361033b366004611b9c565b611150565b60006001600160e01b031982166380ac58cd60e01b148061037157506001600160e01b03198216635b5e139f60e01b145b8061038c57506301ffc9a760e01b6001600160e01b03198316145b92915050565b6060600080546103a190611d98565b80601f01602080910402602001604051908101604052809291908181526020018280546103cd90611d98565b801561041a5780601f106103ef5761010080835404028352916020019161041a565b820191906000526020600020905b8154815290600101906020018083116103fd57829003601f168201915b5050505050905090565b600061042f8261118e565b506000828152600460205260409020546001600160a01b031661038c565b6104588282336111c7565b5050565b3361046684610a14565b6001600160a01b0316148061048a57503360009081526009602052604090205460ff165b6104f75760405162461bcd60e51b815260206004820152603360248201527f43616c6c6572206973206e6f742074686520746f6b656e206f776e6572206f72604482015272103a34329031b7b73a3930b1ba1037bbb732b960691b60648201526084015b60405180910390fd5b6000838152600860209081526040808320815160e0810183528154815260018201546001600160a01b031693810193909352600281018054919284019161053d90611d98565b80601f016020809104026020016040519081016040528092919081815260200182805461056990611d98565b80156105b65780601f1061058b576101008083540402835291602001916105b6565b820191906000526020600020905b81548152906001019060200180831161059957829003601f168201915b505050505081526020016003820180546105cf90611d98565b80601f01602080910402602001604051908101604052809291908181526020018280546105fb90611d98565b80156106485780601f1061061d57610100808354040283529160200191610648565b820191906000526020600020905b81548152906001019060200180831161062b57829003601f168201915b5050505050815260200160048201805461066190611d98565b80601f016020809104026020016040519081016040528092919081815260200182805461068d90611d98565b80156106da5780601f106106af576101008083540402835291602001916106da565b820191906000526020600020905b8154815290600101906020018083116106bd57829003601f168201915b505050505081526020016005820180546106f390611d98565b80601f016020809104026020016040519081016040528092919081815260200182805461071f90611d98565b801561076c5780601f106107415761010080835404028352916020019161076c565b820191906000526020600020905b81548152906001019060200180831161074f57829003601f168201915b5050505050815260200160068201805461078590611d98565b80601f01602080910402602001604051908101604052809291908181526020018280546107b190611d98565b80156107fe5780601f106107d3576101008083540402835291602001916107fe565b820191906000526020600020905b8154815290600101906020018083116107e157829003601f168201915b50505050508152505090506000600181111561081c5761081c611dd2565b82600181111561082e5761082e611dd2565b0361087e5780516020820151604080840151905187927f595747e7f228a851268db2586ad8611651b09bec01d8ad30d446983767b66e8192610871928990611de8565b60405180910390a361090f565b600182600181111561089257610892611dd2565b036108d2578060000151847f299aad4bd0de79fecfce5a849e59221a503c3677a763f7948ffa1e22f704ab1b836040015186604051610871929190611e28565b60405162461bcd60e51b8152602060048201526012602482015271496e76616c696420746f6b656e207479706560701b60448201526064016104ee565b610918846111d4565b50505050565b6001600160a01b03821661094857604051633250574960e11b8152600060048201526024016104ee565b600061095583833361120f565b9050836001600160a01b0316816001600160a01b031614610918576040516364283d7b60e01b81526001600160a01b03808616600483015260248201849052821660448201526064016104ee565b6109ab61130a565b6001600160a01b038116600081815260096020526040808220805460ff19169055517f2f91b591fc56ac0917953ad01ec225524ee5ef0555213e4c8a9d8c9728ee7ffb9190a250565b610a0f83838360405180602001604052806000815250610cbf565b505050565b600061038c8261118e565b60006001600160a01b038216610a4b576040516322718ad960e21b8152600060048201526024016104ee565b506001600160a01b031660009081526003602052604090205490565b610a6f61130a565b610a796000611337565b565b6060600180546103a190611d98565b610a9261130a565b6001600160a01b038116600081815260096020526040808220805460ff19166001179055517f09094208b043720577503c2a031522b7df2358c7e7c0373ee7b1260db2bef4c69190a250565b3360009081526009602052604081205460ff16610b3d5760405162461bcd60e51b815260206004820152601960248201527f43616c6c6572206973206e6f742077686974656c69737465640000000000000060448201526064016104ee565b60008281526007602052604090205415610b5657600080fd5b6000600a60008154610b6790611e6c565b91829055509050610b788a82611389565b6040805160e0810182528a81526001600160a01b038c811660208084019182528385018d8152606085018d9052608085018c905260a085018b905260c085018a9052600087815260089092529490208351815590516001820180546001600160a01b031916919093161790915591519091906002820190610bf99082611ecd565b5060608201516003820190610c0e9082611ecd565b5060808201516004820190610c239082611ecd565b5060a08201516005820190610c389082611ecd565b5060c08201516006820190610c4d9082611ecd565b5050506000838152600760205260409081902082905551899082907faf09843ee604d6ab497a5c7a4e5ac629c34dc27da995b6a2876f79e6ac194eff90610c9f908e908d908d908d908d908d90611f8d565b60405180910390a39998505050505050505050565b6104583383836113a3565b610cca84848461091e565b6109183385858585611442565b60606000610ce483610a14565b6001600160a01b031603610d0b5760405163d872946b60e01b815260040160405180910390fd5b6000828152600860209081526040808320815160e0810183528154815260018201546001600160a01b0316938101939093526002810180549192840191610d5190611d98565b80601f0160208091040260200160405190810160405280929190818152602001828054610d7d90611d98565b8015610dca5780601f10610d9f57610100808354040283529160200191610dca565b820191906000526020600020905b815481529060010190602001808311610dad57829003601f168201915b50505050508152602001600382018054610de390611d98565b80601f0160208091040260200160405190810160405280929190818152602001828054610e0f90611d98565b8015610e5c5780601f10610e3157610100808354040283529160200191610e5c565b820191906000526020600020905b815481529060010190602001808311610e3f57829003601f168201915b50505050508152602001600482018054610e7590611d98565b80601f0160208091040260200160405190810160405280929190818152602001828054610ea190611d98565b8015610eee5780601f10610ec357610100808354040283529160200191610eee565b820191906000526020600020905b815481529060010190602001808311610ed157829003601f168201915b50505050508152602001600582018054610f0790611d98565b80601f0160208091040260200160405190810160405280929190818152602001828054610f3390611d98565b8015610f805780601f10610f5557610100808354040283529160200191610f80565b820191906000526020600020905b815481529060010190602001808311610f6357829003601f168201915b50505050508152602001600682018054610f9990611d98565b80601f0160208091040260200160405190810160405280929190818152602001828054610fc590611d98565b80156110125780601f10610fe757610100808354040283529160200191611012565b820191906000526020600020905b815481529060010190602001808311610ff557829003601f168201915b5050505050815250509050600081608001516040516020016110349190612028565b604051602081830303815290604052905060008260800151836040015160405160200161106292919061205c565b604051602081830303815290604052905060006110a78460c001518560a00151604051602001611093929190612116565b60405160208183030381529060405261156d565b6040516020016110b79190612297565b604051602081830303815290604052905060006110f4838386886080015189604001518a60600151604051602001611093969594939291906122dc565b9050806040516020016111079190612487565b60405160208183030381529060405295505050505050919050565b6001600160a01b03918216600090815260056020908152604080832093909416825291909152205460ff1690565b61115861130a565b6001600160a01b03811661118257604051631e4fbdf760e01b8152600060048201526024016104ee565b61118b81611337565b50565b6000818152600260205260408120546001600160a01b03168061038c57604051637e27328960e01b8152600481018490526024016104ee565b610a0f8383836001611593565b60006111e3600083600061120f565b90506001600160a01b03811661045857604051637e27328960e01b8152600481018390526024016104ee565b6000828152600260205260408120546001600160a01b039081169083161561123c5761123c818486611699565b6001600160a01b0381161561127a57611259600085600080611593565b6001600160a01b038116600090815260036020526040902080546000190190555b6001600160a01b038516156112a9576001600160a01b0385166000908152600360205260409020805460010190555b60008481526002602052604080822080546001600160a01b0319166001600160a01b0389811691821790925591518793918516917fddf252ad1be2c89b69c2b068fc378daa952ba7f163c4a11628f55a4df523b3ef91a490505b9392505050565b6006546001600160a01b03163314610a795760405163118cdaa760e01b81523360048201526024016104ee565b600680546001600160a01b038381166001600160a01b0319831681179093556040519116919082907f8be0079c531659141344cd1fd0a4f28419497f9722a3daafe3b4186f6b6457e090600090a35050565b6104588282604051806020016040528060008152506116fd565b6001600160a01b0382166113d557604051630b61174360e31b81526001600160a01b03831660048201526024016104ee565b6001600160a01b03838116600081815260056020908152604080832094871680845294825291829020805460ff191686151590811790915591519182527f17307eab39ab6107e8899845ad3d59bd9653f200f220920489ca2b5937696c31910160405180910390a3505050565b6001600160a01b0383163b1561156657604051630a85bd0160e11b81526001600160a01b0384169063150b7a02906114849088908890879087906004016124cc565b6020604051808303816000875af19250505080156114bf575060408051601f3d908101601f191682019092526114bc918101906124ff565b60015b611528573d8080156114ed576040519150601f19603f3d011682016040523d82523d6000602084013e6114f2565b606091505b50805160000361152057604051633250574960e11b81526001600160a01b03851660048201526024016104ee565b805181602001fd5b6001600160e01b03198116630a85bd0160e11b1461156457604051633250574960e11b81526001600160a01b03851660048201526024016104ee565b505b5050505050565b606061038c82604051806060016040528060408152602001612569604091396001611715565b80806115a757506001600160a01b03821615155b156116695760006115b78461118e565b90506001600160a01b038316158015906115e35750826001600160a01b0316816001600160a01b031614155b80156115f657506115f48184611122565b155b1561161f5760405163a9fbf51f60e01b81526001600160a01b03841660048201526024016104ee565b81156116675783856001600160a01b0316826001600160a01b03167f8c5be1e5ebec7d5bd14f71427d1e84f3dd0314c0f7b2291e5b200ac8c7c3b92560405160405180910390a45b505b5050600090815260046020526040902080546001600160a01b0319166001600160a01b0392909216919091179055565b6116a4838383611895565b610a0f576001600160a01b0383166116d257604051637e27328960e01b8152600481018290526024016104ee565b60405163177e802f60e01b81526001600160a01b0383166004820152602481018290526044016104ee565b61170783836118fb565b610a0f336000858585611442565b606083516000036117355750604080516020810190915260008152611303565b6000826117665760038551600461174c919061251c565b611757906002612533565b6117619190612546565b61178b565b6003855160026117769190612533565b6117809190612546565b61178b90600461251c565b905060008167ffffffffffffffff8111156117a8576117a8611a55565b6040519080825280601f01601f1916602001820160405280156117d2576020820181803683370190505b50905060018501602082018788518901602081018051600082525b82841015611848576003840193508351603f8160121c168701518653600186019550603f81600c1c168701518653600186019550603f8160061c168701518653600186019550603f81168701518653506001850194506117ed565b9052505085156118895760038851066001811461186c576002811461187f57611887565b603d6001830353603d6002830353611887565b603d60018303535b505b50909695505050505050565b60006001600160a01b038316158015906118f35750826001600160a01b0316846001600160a01b031614806118cf57506118cf8484611122565b806118f357506000828152600460205260409020546001600160a01b038481169116145b949350505050565b6001600160a01b03821661192557604051633250574960e11b8152600060048201526024016104ee565b60006119338383600061120f565b90506001600160a01b03811615610a0f576040516339e3563760e11b8152600060048201526024016104ee565b6001600160e01b03198116811461118b57600080fd5b60006020828403121561198857600080fd5b813561130381611960565b60005b838110156119ae578181015183820152602001611996565b50506000910152565b600081518084526119cf816020860160208601611993565b601f01601f19169290920160200192915050565b60208152600061130360208301846119b7565b600060208284031215611a0857600080fd5b5035919050565b80356001600160a01b0381168114611a2657600080fd5b919050565b60008060408385031215611a3e57600080fd5b611a4783611a0f565b946020939093013593505050565b634e487b7160e01b600052604160045260246000fd5b600067ffffffffffffffff80841115611a8657611a86611a55565b604051601f8501601f19908116603f01168101908282118183101715611aae57611aae611a55565b81604052809350858152868686011115611ac757600080fd5b858560208301376000602087830101525050509392505050565b600082601f830112611af257600080fd5b61130383833560208501611a6b565b600080600060608486031215611b1657600080fd5b83359250602084013567ffffffffffffffff811115611b3457600080fd5b611b4086828701611ae1565b925050604084013560028110611b5557600080fd5b809150509250925092565b600080600060608486031215611b7557600080fd5b611b7e84611a0f565b9250611b8c60208501611a0f565b9150604084013590509250925092565b600060208284031215611bae57600080fd5b61130382611a0f565b600080600080600080600080610100898b031215611bd457600080fd5b611bdd89611a0f565b975060208901359650604089013567ffffffffffffffff80821115611c0157600080fd5b611c0d8c838d01611ae1565b975060608b0135915080821115611c2357600080fd5b611c2f8c838d01611ae1565b965060808b0135915080821115611c4557600080fd5b611c518c838d01611ae1565b955060a08b0135915080821115611c6757600080fd5b611c738c838d01611ae1565b945060c08b0135915080821115611c8957600080fd5b50611c968b828c01611ae1565b92505060e089013590509295985092959890939650565b60008060408385031215611cc057600080fd5b611cc983611a0f565b915060208301358015158114611cde57600080fd5b809150509250929050565b60008060008060808587031215611cff57600080fd5b611d0885611a0f565b9350611d1660208601611a0f565b925060408501359150606085013567ffffffffffffffff811115611d3957600080fd5b8501601f81018713611d4a57600080fd5b611d5987823560208401611a6b565b91505092959194509250565b60008060408385031215611d7857600080fd5b611d8183611a0f565b9150611d8f60208401611a0f565b90509250929050565b600181811c90821680611dac57607f821691505b602082108103611dcc57634e487b7160e01b600052602260045260246000fd5b50919050565b634e487b7160e01b600052602160045260246000fd5b6001600160a01b0384168152606060208201819052600090611e0c908301856119b7565b8281036040840152611e1e81856119b7565b9695505050505050565b604081526000611e3b60408301856119b7565b8281036020840152611e4d81856119b7565b95945050505050565b634e487b7160e01b600052601160045260246000fd5b600060018201611e7e57611e7e611e56565b5060010190565b601f821115610a0f576000816000526020600020601f850160051c81016020861015611eae5750805b601f850160051c820191505b8181101561156457828155600101611eba565b815167ffffffffffffffff811115611ee757611ee7611a55565b611efb81611ef58454611d98565b84611e85565b602080601f831160018114611f305760008415611f185750858301515b600019600386901b1c1916600185901b178555611564565b600085815260208120601f198616915b82811015611f5f57888601518255948401946001909101908401611f40565b5085821015611f7d5787850151600019600388901b60f8161c191681555b5050505050600190811b01905550565b6001600160a01b038716815260c060208201819052600090611fb1908301886119b7565b8281036040840152611fc381886119b7565b90508281036060840152611fd781876119b7565b90508281036080840152611feb81866119b7565b905082810360a0840152611fff81856119b7565b9998505050505050505050565b6000815161201e818560208601611993565b9290920192915050565b6b02a32b632b837b93a103a37960a51b81526000825161204f81600c850160208701611993565b91909101600c0192915050565b7f416c6c6f777320796f7520746f20706f7374206f6e63652066726f6d2000000081526000835161209481601d850160208801611993565b80830190507f2773206163636f756e7420696620796f757220706f7374207061737365732074601d8201527f686520666f6c6c6f77696e6720636865636b20627920746865204c4c4d3a2000603d820152602760f81b80605c830152845161210381605d850160208901611993565b605d920191820152605e01949350505050565b7f3c73766720786d6c6e733d22687474703a2f2f7777772e77332e6f72672f323081527f30302f7376672220786d6c6e733a786c696e6b3d22687474703a2f2f7777772e60208201527f77332e6f72672f313939392f786c696e6b222077696474683d2234303022206860408201527f65696768743d22343030222076696577426f783d22302030203430302034303060608201527f222066696c6c3d226e6f6e65223e3c696d61676520786c696e6b3a687265663d6080820152601160f91b60a0820152600083516121f08160a1850160208801611993565b7f22206865696768743d22343030222077696474683d2234303022202f3e3c696d60a1918401918201526f30b3b2903c3634b7359d343932b31e9160811b60c182015283516122468160d1840160208801611993565b7f22206865696768743d22313030222077696474683d223130302220783d22302260d1929091019182015270103c9e911998181110179f1e17b9bb339f60791b60f182015261010201949350505050565b7f646174613a696d6167652f7376672b786d6c3b6261736536342c0000000000008152600082516122cf81601a850160208701611993565b91909101601a0192915050565b703d913232b9b1b934b83a34b7b7111d101160791b81528651600090612309816011850160208c01611993565b741116101130b734b6b0ba34b7b72fbab936111d101160591b601191840191820152875161233e816026840160208c01611993565b6b111610113730b6b2911d101160a11b60269290910191820152865161236b816032840160208b01611993565b7f222c202261747472696275746573223a205b7b2274726169745f74797065223a603292909101918201527f20225820557365726e616d65222c202276616c7565223a202200000000000000605282015285516123cf81606b840160208a01611993565b61247961246961246361242a612424606b868801017f227d2c207b2274726169745f74797065223a20224c4c4d20736166656775617281526d32111610113b30b63ab2911d101160911b6020820152602e0190565b8a61200c565b7f227d2c207b2274726169745f74797065223a202258204e616d65222c20227661815266363ab2911d101160c91b602082015260270190565b8761200c565b63227d5d7d60e01b815260040190565b9a9950505050505050505050565b7f646174613a6170706c69636174696f6e2f6a736f6e3b6261736536342c0000008152600082516124bf81601d850160208701611993565b91909101601d0192915050565b6001600160a01b0385811682528416602082015260408101839052608060608201819052600090611e1e908301846119b7565b60006020828403121561251157600080fd5b815161130381611960565b808202811582820484141761038c5761038c611e56565b8082018082111561038c5761038c611e56565b60008261256357634e487b7160e01b600052601260045260246000fd5b50049056fe4142434445464748494a4b4c4d4e4f505152535455565758595a6162636465666768696a6b6c6d6e6f707172737475767778797a303132333435363738392b2fa26469706673582212201745c74b4aedf17b13b66b5dc288a4bf8a8e30847b046d0ad8a019bbc61fd0d164736f6c63430008160033",
   "linkReferences": {},
   "deployedLinkReferences": {}
}