{"abi":[{"type":"constructor","inputs":[{"name":"_name","type":"string","internalType":"string"},{"name":"_symbol","type":"string","internalType":"string"},{"name":"_baseURI","type":"string","internalType":"string"},{"name":"initialOwner","type":"address","internalType":"address"}],"stateMutability":"nonpayable"},{"type":"function","name":"approve","inputs":[{"name":"to","type":"address","internalType":"address"},{"name":"tokenId","type":"uint256","internalType":"uint256"}],"outputs":[],"stateMutability":"nonpayable"},{"type":"function","name":"balanceOf","inputs":[{"name":"owner","type":"address","internalType":"address"}],"outputs":[{"name":"","type":"uint256","internalType":"uint256"}],"stateMutability":"view"},{"type":"function","name":"baseURI","inputs":[],"outputs":[{"name":"","type":"string","internalType":"string"}],"stateMutability":"view"},{"type":"function","name":"currentTokenId","inputs":[],"outputs":[{"name":"","type":"uint256","internalType":"uint256"}],"stateMutability":"view"},{"type":"function","name":"getApproved","inputs":[{"name":"tokenId","type":"uint256","internalType":"uint256"}],"outputs":[{"name":"","type":"address","internalType":"address"}],"stateMutability":"view"},{"type":"function","name":"isApprovedForAll","inputs":[{"name":"owner","type":"address","internalType":"address"},{"name":"operator","type":"address","internalType":"address"}],"outputs":[{"name":"","type":"bool","internalType":"bool"}],"stateMutability":"view"},{"type":"function","name":"mintTo","inputs":[{"name":"recipient","type":"address","internalType":"address"},{"name":"x_id","type":"uint256","internalType":"uint256"},{"name":"policy","type":"string","internalType":"string"}],"outputs":[{"name":"","type":"uint256","internalType":"uint256"}],"stateMutability":"nonpayable"},{"type":"function","name":"name","inputs":[],"outputs":[{"name":"","type":"string","internalType":"string"}],"stateMutability":"view"},{"type":"function","name":"owner","inputs":[],"outputs":[{"name":"","type":"address","internalType":"address"}],"stateMutability":"view"},{"type":"function","name":"ownerOf","inputs":[{"name":"tokenId","type":"uint256","internalType":"uint256"}],"outputs":[{"name":"","type":"address","internalType":"address"}],"stateMutability":"view"},{"type":"function","name":"redeem","inputs":[{"name":"tokenId","type":"uint256","internalType":"uint256"},{"name":"content","type":"string","internalType":"string"}],"outputs":[],"stateMutability":"nonpayable"},{"type":"function","name":"renounceOwnership","inputs":[],"outputs":[],"stateMutability":"nonpayable"},{"type":"function","name":"safeTransferFrom","inputs":[{"name":"from","type":"address","internalType":"address"},{"name":"to","type":"address","internalType":"address"},{"name":"tokenId","type":"uint256","internalType":"uint256"}],"outputs":[],"stateMutability":"nonpayable"},{"type":"function","name":"safeTransferFrom","inputs":[{"name":"from","type":"address","internalType":"address"},{"name":"to","type":"address","internalType":"address"},{"name":"tokenId","type":"uint256","internalType":"uint256"},{"name":"data","type":"bytes","internalType":"bytes"}],"outputs":[],"stateMutability":"nonpayable"},{"type":"function","name":"setApprovalForAll","inputs":[{"name":"operator","type":"address","internalType":"address"},{"name":"approved","type":"bool","internalType":"bool"}],"outputs":[],"stateMutability":"nonpayable"},{"type":"function","name":"supportsInterface","inputs":[{"name":"interfaceId","type":"bytes4","internalType":"bytes4"}],"outputs":[{"name":"","type":"bool","internalType":"bool"}],"stateMutability":"view"},{"type":"function","name":"symbol","inputs":[],"outputs":[{"name":"","type":"string","internalType":"string"}],"stateMutability":"view"},{"type":"function","name":"tokenURI","inputs":[{"name":"tokenId","type":"uint256","internalType":"uint256"}],"outputs":[{"name":"","type":"string","internalType":"string"}],"stateMutability":"view"},{"type":"function","name":"transferFrom","inputs":[{"name":"from","type":"address","internalType":"address"},{"name":"to","type":"address","internalType":"address"},{"name":"tokenId","type":"uint256","internalType":"uint256"}],"outputs":[],"stateMutability":"nonpayable"},{"type":"function","name":"transferOwnership","inputs":[{"name":"newOwner","type":"address","internalType":"address"}],"outputs":[],"stateMutability":"nonpayable"},{"type":"event","name":"Approval","inputs":[{"name":"owner","type":"address","indexed":true,"internalType":"address"},{"name":"approved","type":"address","indexed":true,"internalType":"address"},{"name":"tokenId","type":"uint256","indexed":true,"internalType":"uint256"}],"anonymous":false},{"type":"event","name":"ApprovalForAll","inputs":[{"name":"owner","type":"address","indexed":true,"internalType":"address"},{"name":"operator","type":"address","indexed":true,"internalType":"address"},{"name":"approved","type":"bool","indexed":false,"internalType":"bool"}],"anonymous":false},{"type":"event","name":"NewTokenData","inputs":[{"name":"tokenId","type":"uint256","indexed":true,"internalType":"uint256"},{"name":"x_id","type":"uint256","indexed":true,"internalType":"uint256"},{"name":"to","type":"address","indexed":false,"internalType":"address"},{"name":"policy","type":"string","indexed":false,"internalType":"string"}],"anonymous":false},{"type":"event","name":"OwnershipTransferred","inputs":[{"name":"previousOwner","type":"address","indexed":true,"internalType":"address"},{"name":"newOwner","type":"address","indexed":true,"internalType":"address"}],"anonymous":false},{"type":"event","name":"Redeem","inputs":[{"name":"tokenId","type":"uint256","indexed":true,"internalType":"uint256"},{"name":"x_id","type":"uint256","indexed":true,"internalType":"uint256"},{"name":"policy","type":"string","indexed":false,"internalType":"string"},{"name":"content","type":"string","indexed":false,"internalType":"string"}],"anonymous":false},{"type":"event","name":"Transfer","inputs":[{"name":"from","type":"address","indexed":true,"internalType":"address"},{"name":"to","type":"address","indexed":true,"internalType":"address"},{"name":"tokenId","type":"uint256","indexed":true,"internalType":"uint256"}],"anonymous":false},{"type":"error","name":"ERC721IncorrectOwner","inputs":[{"name":"sender","type":"address","internalType":"address"},{"name":"tokenId","type":"uint256","internalType":"uint256"},{"name":"owner","type":"address","internalType":"address"}]},{"type":"error","name":"ERC721InsufficientApproval","inputs":[{"name":"operator","type":"address","internalType":"address"},{"name":"tokenId","type":"uint256","internalType":"uint256"}]},{"type":"error","name":"ERC721InvalidApprover","inputs":[{"name":"approver","type":"address","internalType":"address"}]},{"type":"error","name":"ERC721InvalidOperator","inputs":[{"name":"operator","type":"address","internalType":"address"}]},{"type":"error","name":"ERC721InvalidOwner","inputs":[{"name":"owner","type":"address","internalType":"address"}]},{"type":"error","name":"ERC721InvalidReceiver","inputs":[{"name":"receiver","type":"address","internalType":"address"}]},{"type":"error","name":"ERC721InvalidSender","inputs":[{"name":"sender","type":"address","internalType":"address"}]},{"type":"error","name":"ERC721NonexistentToken","inputs":[{"name":"tokenId","type":"uint256","internalType":"uint256"}]},{"type":"error","name":"NonExistentTokenURI","inputs":[]},{"type":"error","name":"OwnableInvalidOwner","inputs":[{"name":"owner","type":"address","internalType":"address"}]},{"type":"error","name":"OwnableUnauthorizedAccount","inputs":[{"name":"account","type":"address","internalType":"address"}]}],"bytecode":{"object":"0x608060405234801561001057600080fd5b50604051611a90380380611a9083398101604081905261002f916101ac565b808484600061003e83826102df565b50600161004b82826102df565b5050506001600160a01b03811661007c57604051631e4fbdf760e01b81526000600482015260240160405180910390fd5b6100858161009c565b50600861009283826102df565b505050505061039e565b600680546001600160a01b038381166001600160a01b0319831681179093556040519116919082907f8be0079c531659141344cd1fd0a4f28419497f9722a3daafe3b4186f6b6457e090600090a35050565b634e487b7160e01b600052604160045260246000fd5b600082601f83011261011557600080fd5b81516001600160401b038082111561012f5761012f6100ee565b604051601f8301601f19908116603f01168101908282118183101715610157576101576100ee565b816040528381526020925086602085880101111561017457600080fd5b600091505b838210156101965785820183015181830184015290820190610179565b6000602085830101528094505050505092915050565b600080600080608085870312156101c257600080fd5b84516001600160401b03808211156101d957600080fd5b6101e588838901610104565b955060208701519150808211156101fb57600080fd5b61020788838901610104565b9450604087015191508082111561021d57600080fd5b5061022a87828801610104565b606087015190935090506001600160a01b038116811461024957600080fd5b939692955090935050565b600181811c9082168061026857607f821691505b60208210810361028857634e487b7160e01b600052602260045260246000fd5b50919050565b601f8211156102da576000816000526020600020601f850160051c810160208610156102b75750805b601f850160051c820191505b818110156102d6578281556001016102c3565b5050505b505050565b81516001600160401b038111156102f8576102f86100ee565b61030c816103068454610254565b8461028e565b602080601f83116001811461034157600084156103295750858301515b600019600386901b1c1916600185901b1785556102d6565b600085815260208120601f198616915b8281101561037057888601518255948401946001909101908401610351565b508582101561038e5787850151600019600388901b60f8161c191681555b5050505050600190811b01905550565b6116e3806103ad6000396000f3fe608060405234801561001057600080fd5b506004361061012b5760003560e01c806370a08231116100ad578063a22cb46511610071578063a22cb4651461025f578063b88d4fde14610272578063c87b56dd14610285578063e985e9c514610298578063f2fde38b146102ab57600080fd5b806370a0823114610218578063715018a61461022b5780638da5cb5b1461023357806395d89b41146102445780639f6ed25f1461024c57600080fd5b806323b872dd116100f457806323b872dd146101c457806324b76fd5146101d757806342842e0e146101ea5780636352211e146101fd5780636c0360eb1461021057600080fd5b80629a9b7b1461013057806301ffc9a71461014c57806306fdde031461016f578063081812fc14610184578063095ea7b3146101af575b600080fd5b61013960095481565b6040519081526020015b60405180910390f35b61015f61015a366004611097565b6102be565b6040519015158152602001610143565b610177610310565b604051610143919061110b565b61019761019236600461111e565b6103a2565b6040516001600160a01b039091168152602001610143565b6101c26101bd366004611153565b6103cb565b005b6101c26101d236600461117d565b6103da565b6101c26101e5366004611265565b61046a565b6101c26101f836600461117d565b6105d9565b61019761020b36600461111e565b6105f4565b6101776105ff565b6101396102263660046112ac565b61068d565b6101c26106d5565b6006546001600160a01b0316610197565b6101776106e9565b61013961025a3660046112c7565b6106f8565b6101c261026d36600461131e565b6107a4565b6101c261028036600461135a565b6107af565b61017761029336600461111e565b6107c6565b61015f6102a63660046113d6565b610856565b6101c26102b93660046112ac565b610884565b60006001600160e01b031982166380ac58cd60e01b14806102ef57506001600160e01b03198216635b5e139f60e01b145b8061030a57506301ffc9a760e01b6001600160e01b03198316145b92915050565b60606000805461031f90611409565b80601f016020809104026020016040519081016040528092919081815260200182805461034b90611409565b80156103985780601f1061036d57610100808354040283529160200191610398565b820191906000526020600020905b81548152906001019060200180831161037b57829003601f168201915b5050505050905090565b60006103ad826108c2565b506000828152600460205260409020546001600160a01b031661030a565b6103d68282336108fb565b5050565b6001600160a01b03821661040957604051633250574960e11b8152600060048201526024015b60405180910390fd5b6000610416838333610908565b9050836001600160a01b0316816001600160a01b031614610464576040516364283d7b60e01b81526001600160a01b0380861660048301526024820184905282166044820152606401610400565b50505050565b33610474836105f4565b6001600160a01b0316146104ca5760405162461bcd60e51b815260206004820152601d60248201527f43616c6c6572206973206e6f742074686520746f6b656e206f776e65720000006044820152606401610400565b6000600760008481526020019081526020016000206040518060400160405290816000820154815260200160018201805461050490611409565b80601f016020809104026020016040519081016040528092919081815260200182805461053090611409565b801561057d5780601f106105525761010080835404028352916020019161057d565b820191906000526020600020905b81548152906001019060200180831161056057829003601f168201915b50505050508152505090508060000151837fa5d48d7eb5a793eb828da15235a608f1f176a4b155160eda95720abc385493f08360200151856040516105c3929190611443565b60405180910390a36105d483610a01565b505050565b6105d4838383604051806020016040528060008152506107af565b600061030a826108c2565b6008805461060c90611409565b80601f016020809104026020016040519081016040528092919081815260200182805461063890611409565b80156106855780601f1061065a57610100808354040283529160200191610685565b820191906000526020600020905b81548152906001019060200180831161066857829003601f168201915b505050505081565b60006001600160a01b0382166106b9576040516322718ad960e21b815260006004820152602401610400565b506001600160a01b031660009081526003602052604090205490565b6106dd610a3c565b6106e76000610a96565b565b60606001805461031f90611409565b6000610702610a3c565b600060096000815461071390611471565b918290555090506107248582610ae8565b604080518082018252858152602080820186815260008581526007909252929020815181559151909190600182019061075d90826114e8565b5090505083817f5211c4bb751b2215aaefcc61d26596cf5003513409bf122ed7140ec11e8f7f4087866040516107949291906115a8565b60405180910390a3949350505050565b6103d6338383610b02565b6107ba8484846103da565b61046484848484610ba1565b606060006107d3836105f4565b6001600160a01b0316036107fa5760405163d872946b60e01b815260040160405180910390fd5b60006008805461080990611409565b905011610825576040518060200160405280600081525061030a565b600861083083610cca565b6040516020016108419291906115cc565b60405160208183030381529060405292915050565b6001600160a01b03918216600090815260056020908152604080832093909416825291909152205460ff1690565b61088c610a3c565b6001600160a01b0381166108b657604051631e4fbdf760e01b815260006004820152602401610400565b6108bf81610a96565b50565b6000818152600260205260408120546001600160a01b03168061030a57604051637e27328960e01b815260048101849052602401610400565b6105d48383836001610d5d565b6000828152600260205260408120546001600160a01b039081169083161561093557610935818486610e63565b6001600160a01b0381161561097357610952600085600080610d5d565b6001600160a01b038116600090815260036020526040902080546000190190555b6001600160a01b038516156109a2576001600160a01b0385166000908152600360205260409020805460010190555b60008481526002602052604080822080546001600160a01b0319166001600160a01b0389811691821790925591518793918516917fddf252ad1be2c89b69c2b068fc378daa952ba7f163c4a11628f55a4df523b3ef91a4949350505050565b6000610a106000836000610908565b90506001600160a01b0381166103d657604051637e27328960e01b815260048101839052602401610400565b6006546001600160a01b031633146106e75760405162461bcd60e51b815260206004820181905260248201527f4f776e61626c653a2063616c6c6572206973206e6f7420746865206f776e65726044820152606401610400565b600680546001600160a01b038381166001600160a01b0319831681179093556040519116919082907f8be0079c531659141344cd1fd0a4f28419497f9722a3daafe3b4186f6b6457e090600090a35050565b6103d6828260405180602001604052806000815250610ec7565b6001600160a01b038216610b3457604051630b61174360e31b81526001600160a01b0383166004820152602401610400565b6001600160a01b03838116600081815260056020908152604080832094871680845294825291829020805460ff191686151590811790915591519182527f17307eab39ab6107e8899845ad3d59bd9653f200f220920489ca2b5937696c31910160405180910390a3505050565b6001600160a01b0383163b1561046457604051630a85bd0160e11b81526001600160a01b0384169063150b7a0290610be3903390889087908790600401611653565b6020604051808303816000875af1925050508015610c1e575060408051601f3d908101601f19168201909252610c1b91810190611690565b60015b610c87573d808015610c4c576040519150601f19603f3d011682016040523d82523d6000602084013e610c51565b606091505b508051600003610c7f57604051633250574960e11b81526001600160a01b0385166004820152602401610400565b805181602001fd5b6001600160e01b03198116630a85bd0160e11b14610cc357604051633250574960e11b81526001600160a01b0385166004820152602401610400565b5050505050565b60606000610cd783610ede565b600101905060008167ffffffffffffffff811115610cf757610cf76111b9565b6040519080825280601f01601f191660200182016040528015610d21576020820181803683370190505b5090508181016020015b600019016f181899199a1a9b1b9c1cb0b131b232b360811b600a86061a8153600a8504945084610d2b57509392505050565b8080610d7157506001600160a01b03821615155b15610e33576000610d81846108c2565b90506001600160a01b03831615801590610dad5750826001600160a01b0316816001600160a01b031614155b8015610dc05750610dbe8184610856565b155b15610de95760405163a9fbf51f60e01b81526001600160a01b0384166004820152602401610400565b8115610e315783856001600160a01b0316826001600160a01b03167f8c5be1e5ebec7d5bd14f71427d1e84f3dd0314c0f7b2291e5b200ac8c7c3b92560405160405180910390a45b505b5050600090815260046020526040902080546001600160a01b0319166001600160a01b0392909216919091179055565b610e6e838383610fb6565b6105d4576001600160a01b038316610e9c57604051637e27328960e01b815260048101829052602401610400565b60405163177e802f60e01b81526001600160a01b038316600482015260248101829052604401610400565b610ed1838361101c565b6105d46000848484610ba1565b60008072184f03e93ff9f4daa797ed6e38ed64bf6a1f0160401b8310610f1d5772184f03e93ff9f4daa797ed6e38ed64bf6a1f0160401b830492506040015b6d04ee2d6d415b85acef81000000008310610f49576d04ee2d6d415b85acef8100000000830492506020015b662386f26fc100008310610f6757662386f26fc10000830492506010015b6305f5e1008310610f7f576305f5e100830492506008015b6127108310610f9357612710830492506004015b60648310610fa5576064830492506002015b600a831061030a5760010192915050565b60006001600160a01b038316158015906110145750826001600160a01b0316846001600160a01b03161480610ff05750610ff08484610856565b8061101457506000828152600460205260409020546001600160a01b038481169116145b949350505050565b6001600160a01b03821661104657604051633250574960e11b815260006004820152602401610400565b600061105483836000610908565b90506001600160a01b038116156105d4576040516339e3563760e11b815260006004820152602401610400565b6001600160e01b0319811681146108bf57600080fd5b6000602082840312156110a957600080fd5b81356110b481611081565b9392505050565b60005b838110156110d65781810151838201526020016110be565b50506000910152565b600081518084526110f78160208601602086016110bb565b601f01601f19169290920160200192915050565b6020815260006110b460208301846110df565b60006020828403121561113057600080fd5b5035919050565b80356001600160a01b038116811461114e57600080fd5b919050565b6000806040838503121561116657600080fd5b61116f83611137565b946020939093013593505050565b60008060006060848603121561119257600080fd5b61119b84611137565b92506111a960208501611137565b9150604084013590509250925092565b634e487b7160e01b600052604160045260246000fd5b600067ffffffffffffffff808411156111ea576111ea6111b9565b604051601f8501601f19908116603f01168101908282118183101715611212576112126111b9565b8160405280935085815286868601111561122b57600080fd5b858560208301376000602087830101525050509392505050565b600082601f83011261125657600080fd5b6110b4838335602085016111cf565b6000806040838503121561127857600080fd5b82359150602083013567ffffffffffffffff81111561129657600080fd5b6112a285828601611245565b9150509250929050565b6000602082840312156112be57600080fd5b6110b482611137565b6000806000606084860312156112dc57600080fd5b6112e584611137565b925060208401359150604084013567ffffffffffffffff81111561130857600080fd5b61131486828701611245565b9150509250925092565b6000806040838503121561133157600080fd5b61133a83611137565b91506020830135801515811461134f57600080fd5b809150509250929050565b6000806000806080858703121561137057600080fd5b61137985611137565b935061138760208601611137565b925060408501359150606085013567ffffffffffffffff8111156113aa57600080fd5b8501601f810187136113bb57600080fd5b6113ca878235602084016111cf565b91505092959194509250565b600080604083850312156113e957600080fd5b6113f283611137565b915061140060208401611137565b90509250929050565b600181811c9082168061141d57607f821691505b60208210810361143d57634e487b7160e01b600052602260045260246000fd5b50919050565b60408152600061145660408301856110df565b828103602084015261146881856110df565b95945050505050565b60006001820161149157634e487b7160e01b600052601160045260246000fd5b5060010190565b601f8211156105d4576000816000526020600020601f850160051c810160208610156114c15750805b601f850160051c820191505b818110156114e0578281556001016114cd565b505050505050565b815167ffffffffffffffff811115611502576115026111b9565b611516816115108454611409565b84611498565b602080601f83116001811461154b57600084156115335750858301515b600019600386901b1c1916600185901b1785556114e0565b600085815260208120601f198616915b8281101561157a5788860151825594840194600190910190840161155b565b50858210156115985787850151600019600388901b60f8161c191681555b5050505050600190811b01905550565b6001600160a01b0383168152604060208201819052600090611014908301846110df565b60008084546115da81611409565b600182811680156115f2576001811461160757611636565b60ff1984168752821515830287019450611636565b8860005260208060002060005b8581101561162d5781548a820152908401908201611614565b50505082870194505b50505050835161164a8183602088016110bb565b01949350505050565b6001600160a01b0385811682528416602082015260408101839052608060608201819052600090611686908301846110df565b9695505050505050565b6000602082840312156116a257600080fd5b81516110b48161108156fea264697066735822122050ab5d53e2b0ec613ba1b582051f128b1ef4f77772a9f9237932e5ec791034ef64736f6c63430008190033","linkReferences":{}},"methodIdentifiers":{"approve(address,uint256)":"095ea7b3","balanceOf(address)":"70a08231","baseURI()":"6c0360eb","currentTokenId()":"009a9b7b","getApproved(uint256)":"081812fc","isApprovedForAll(address,address)":"e985e9c5","mintTo(address,uint256,string)":"9f6ed25f","name()":"06fdde03","owner()":"8da5cb5b","ownerOf(uint256)":"6352211e","redeem(uint256,string)":"24b76fd5","renounceOwnership()":"715018a6","safeTransferFrom(address,address,uint256)":"42842e0e","safeTransferFrom(address,address,uint256,bytes)":"b88d4fde","setApprovalForAll(address,bool)":"a22cb465","supportsInterface(bytes4)":"01ffc9a7","symbol()":"95d89b41","tokenURI(uint256)":"c87b56dd","transferFrom(address,address,uint256)":"23b872dd","transferOwnership(address)":"f2fde38b"},"id":12}