{
    "abi": [
        {
            "type": "constructor",
            "inputs": [
                {
                    "name": "_name",
                    "type": "string",
                    "internalType": "string"
                },
                {
                    "name": "_symbol",
                    "type": "string",
                    "internalType": "string"
                },
                {
                    "name": "initialOwner",
                    "type": "address",
                    "internalType": "address"
                }
            ],
            "stateMutability": "nonpayable"
        },
        {
            "type": "function",
            "name": "approve",
            "inputs": [
                {
                    "name": "to",
                    "type": "address",
                    "internalType": "address"
                },
                {
                    "name": "tokenId",
                    "type": "uint256",
                    "internalType": "uint256"
                }
            ],
            "outputs": [],
            "stateMutability": "nonpayable"
        },
        {
            "type": "function",
            "name": "balanceOf",
            "inputs": [
                {
                    "name": "owner",
                    "type": "address",
                    "internalType": "address"
                }
            ],
            "outputs": [
                {
                    "name": "",
                    "type": "uint256",
                    "internalType": "uint256"
                }
            ],
            "stateMutability": "view"
        },
        {
            "type": "function",
            "name": "currentTokenId",
            "inputs": [],
            "outputs": [
                {
                    "name": "",
                    "type": "uint256",
                    "internalType": "uint256"
                }
            ],
            "stateMutability": "view"
        },
        {
            "type": "function",
            "name": "getApproved",
            "inputs": [
                {
                    "name": "tokenId",
                    "type": "uint256",
                    "internalType": "uint256"
                }
            ],
            "outputs": [
                {
                    "name": "",
                    "type": "address",
                    "internalType": "address"
                }
            ],
            "stateMutability": "view"
        },
        {
            "type": "function",
            "name": "isApprovedForAll",
            "inputs": [
                {
                    "name": "owner",
                    "type": "address",
                    "internalType": "address"
                },
                {
                    "name": "operator",
                    "type": "address",
                    "internalType": "address"
                }
            ],
            "outputs": [
                {
                    "name": "",
                    "type": "bool",
                    "internalType": "bool"
                }
            ],
            "stateMutability": "view"
        },
        {
            "type": "function",
            "name": "isWhitelisted",
            "inputs": [
                {
                    "name": "",
                    "type": "address",
                    "internalType": "address"
                }
            ],
            "outputs": [
                {
                    "name": "",
                    "type": "bool",
                    "internalType": "bool"
                }
            ],
            "stateMutability": "view"
        },
        {
            "type": "function",
            "name": "mintTo",
            "inputs": [
                {
                    "name": "recipient",
                    "type": "address",
                    "internalType": "address"
                },
                {
                    "name": "x_id",
                    "type": "uint256",
                    "internalType": "uint256"
                },
                {
                    "name": "policy",
                    "type": "string",
                    "internalType": "string"
                },
                {
                    "name": "name",
                    "type": "string",
                    "internalType": "string"
                },
                {
                    "name": "username",
                    "type": "string",
                    "internalType": "string"
                },
                {
                    "name": "pfp",
                    "type": "string",
                    "internalType": "string"
                },
                {
                    "name": "nftIdHash",
                    "type": "bytes32",
                    "internalType": "bytes32"
                }
            ],
            "outputs": [
                {
                    "name": "",
                    "type": "uint256",
                    "internalType": "uint256"
                }
            ],
            "stateMutability": "nonpayable"
        },
        {
            "type": "function",
            "name": "name",
            "inputs": [],
            "outputs": [
                {
                    "name": "",
                    "type": "string",
                    "internalType": "string"
                }
            ],
            "stateMutability": "view"
        },
        {
            "type": "function",
            "name": "nftIdMap",
            "inputs": [
                {
                    "name": "",
                    "type": "bytes32",
                    "internalType": "bytes32"
                }
            ],
            "outputs": [
                {
                    "name": "",
                    "type": "uint256",
                    "internalType": "uint256"
                }
            ],
            "stateMutability": "view"
        },
        {
            "type": "function",
            "name": "owner",
            "inputs": [],
            "outputs": [
                {
                    "name": "",
                    "type": "address",
                    "internalType": "address"
                }
            ],
            "stateMutability": "view"
        },
        {
            "type": "function",
            "name": "ownerOf",
            "inputs": [
                {
                    "name": "tokenId",
                    "type": "uint256",
                    "internalType": "uint256"
                }
            ],
            "outputs": [
                {
                    "name": "",
                    "type": "address",
                    "internalType": "address"
                }
            ],
            "stateMutability": "view"
        },
        {
            "type": "function",
            "name": "redeem",
            "inputs": [
                {
                    "name": "tokenId",
                    "type": "uint256",
                    "internalType": "uint256"
                },
                {
                    "name": "content",
                    "type": "string",
                    "internalType": "string"
                },
                {
                    "name": "tokenType",
                    "type": "uint8",
                    "internalType": "enum NFT.TokenType"
                }
            ],
            "outputs": [],
            "stateMutability": "nonpayable"
        },
        {
            "type": "function",
            "name": "removeMinter",
            "inputs": [
                {
                    "name": "minter",
                    "type": "address",
                    "internalType": "address"
                }
            ],
            "outputs": [],
            "stateMutability": "nonpayable"
        },
        {
            "type": "function",
            "name": "renounceOwnership",
            "inputs": [],
            "outputs": [],
            "stateMutability": "nonpayable"
        },
        {
            "type": "function",
            "name": "safeTransferFrom",
            "inputs": [
                {
                    "name": "from",
                    "type": "address",
                    "internalType": "address"
                },
                {
                    "name": "to",
                    "type": "address",
                    "internalType": "address"
                },
                {
                    "name": "tokenId",
                    "type": "uint256",
                    "internalType": "uint256"
                }
            ],
            "outputs": [],
            "stateMutability": "nonpayable"
        },
        {
            "type": "function",
            "name": "safeTransferFrom",
            "inputs": [
                {
                    "name": "from",
                    "type": "address",
                    "internalType": "address"
                },
                {
                    "name": "to",
                    "type": "address",
                    "internalType": "address"
                },
                {
                    "name": "tokenId",
                    "type": "uint256",
                    "internalType": "uint256"
                },
                {
                    "name": "data",
                    "type": "bytes",
                    "internalType": "bytes"
                }
            ],
            "outputs": [],
            "stateMutability": "nonpayable"
        },
        {
            "type": "function",
            "name": "setApprovalForAll",
            "inputs": [
                {
                    "name": "operator",
                    "type": "address",
                    "internalType": "address"
                },
                {
                    "name": "approved",
                    "type": "bool",
                    "internalType": "bool"
                }
            ],
            "outputs": [],
            "stateMutability": "nonpayable"
        },
        {
            "type": "function",
            "name": "supportsInterface",
            "inputs": [
                {
                    "name": "interfaceId",
                    "type": "bytes4",
                    "internalType": "bytes4"
                }
            ],
            "outputs": [
                {
                    "name": "",
                    "type": "bool",
                    "internalType": "bool"
                }
            ],
            "stateMutability": "view"
        },
        {
            "type": "function",
            "name": "symbol",
            "inputs": [],
            "outputs": [
                {
                    "name": "",
                    "type": "string",
                    "internalType": "string"
                }
            ],
            "stateMutability": "view"
        },
        {
            "type": "function",
            "name": "tokenURI",
            "inputs": [
                {
                    "name": "tokenId",
                    "type": "uint256",
                    "internalType": "uint256"
                }
            ],
            "outputs": [
                {
                    "name": "",
                    "type": "string",
                    "internalType": "string"
                }
            ],
            "stateMutability": "view"
        },
        {
            "type": "function",
            "name": "transferFrom",
            "inputs": [
                {
                    "name": "from",
                    "type": "address",
                    "internalType": "address"
                },
                {
                    "name": "to",
                    "type": "address",
                    "internalType": "address"
                },
                {
                    "name": "tokenId",
                    "type": "uint256",
                    "internalType": "uint256"
                }
            ],
            "outputs": [],
            "stateMutability": "nonpayable"
        },
        {
            "type": "function",
            "name": "transferOwnership",
            "inputs": [
                {
                    "name": "newOwner",
                    "type": "address",
                    "internalType": "address"
                }
            ],
            "outputs": [],
            "stateMutability": "nonpayable"
        },
        {
            "type": "function",
            "name": "whitelistMinter",
            "inputs": [
                {
                    "name": "minter",
                    "type": "address",
                    "internalType": "address"
                }
            ],
            "outputs": [],
            "stateMutability": "nonpayable"
        },
        {
            "type": "event",
            "name": "Approval",
            "inputs": [
                {
                    "name": "owner",
                    "type": "address",
                    "indexed": true,
                    "internalType": "address"
                },
                {
                    "name": "approved",
                    "type": "address",
                    "indexed": true,
                    "internalType": "address"
                },
                {
                    "name": "tokenId",
                    "type": "uint256",
                    "indexed": true,
                    "internalType": "uint256"
                }
            ],
            "anonymous": false
        },
        {
            "type": "event",
            "name": "ApprovalForAll",
            "inputs": [
                {
                    "name": "owner",
                    "type": "address",
                    "indexed": true,
                    "internalType": "address"
                },
                {
                    "name": "operator",
                    "type": "address",
                    "indexed": true,
                    "internalType": "address"
                },
                {
                    "name": "approved",
                    "type": "bool",
                    "indexed": false,
                    "internalType": "bool"
                }
            ],
            "anonymous": false
        },
        {
            "type": "event",
            "name": "NewTokenData",
            "inputs": [
                {
                    "name": "tokenId",
                    "type": "uint256",
                    "indexed": true,
                    "internalType": "uint256"
                },
                {
                    "name": "x_id",
                    "type": "uint256",
                    "indexed": true,
                    "internalType": "uint256"
                },
                {
                    "name": "to",
                    "type": "address",
                    "indexed": false,
                    "internalType": "address"
                },
                {
                    "name": "policy",
                    "type": "string",
                    "indexed": false,
                    "internalType": "string"
                },
                {
                    "name": "name",
                    "type": "string",
                    "indexed": false,
                    "internalType": "string"
                },
                {
                    "name": "username",
                    "type": "string",
                    "indexed": false,
                    "internalType": "string"
                },
                {
                    "name": "pfp",
                    "type": "string",
                    "indexed": false,
                    "internalType": "string"
                }
            ],
            "anonymous": false
        },
        {
            "type": "event",
            "name": "OwnershipTransferred",
            "inputs": [
                {
                    "name": "previousOwner",
                    "type": "address",
                    "indexed": true,
                    "internalType": "address"
                },
                {
                    "name": "newOwner",
                    "type": "address",
                    "indexed": true,
                    "internalType": "address"
                }
            ],
            "anonymous": false
        },
        {
            "type": "event",
            "name": "RedeemLike",
            "inputs": [
                {
                    "name": "tokenId",
                    "type": "uint256",
                    "indexed": true,
                    "internalType": "uint256"
                },
                {
                    "name": "x_id",
                    "type": "uint256",
                    "indexed": true,
                    "internalType": "uint256"
                },
                {
                    "name": "policy",
                    "type": "string",
                    "indexed": false,
                    "internalType": "string"
                },
                {
                    "name": "tweetId",
                    "type": "string",
                    "indexed": false,
                    "internalType": "string"
                }
            ],
            "anonymous": false
        },
        {
            "type": "event",
            "name": "RedeemTweet",
            "inputs": [
                {
                    "name": "tokenId",
                    "type": "uint256",
                    "indexed": true,
                    "internalType": "uint256"
                },
                {
                    "name": "x_id",
                    "type": "uint256",
                    "indexed": true,
                    "internalType": "uint256"
                },
                {
                    "name": "addr",
                    "type": "address",
                    "indexed": false,
                    "internalType": "address"
                },
                {
                    "name": "policy",
                    "type": "string",
                    "indexed": false,
                    "internalType": "string"
                },
                {
                    "name": "content",
                    "type": "string",
                    "indexed": false,
                    "internalType": "string"
                }
            ],
            "anonymous": false
        },
        {
            "type": "event",
            "name": "RemoveMinter",
            "inputs": [
                {
                    "name": "minter",
                    "type": "address",
                    "indexed": true,
                    "internalType": "address"
                }
            ],
            "anonymous": false
        },
        {
            "type": "event",
            "name": "Transfer",
            "inputs": [
                {
                    "name": "from",
                    "type": "address",
                    "indexed": true,
                    "internalType": "address"
                },
                {
                    "name": "to",
                    "type": "address",
                    "indexed": true,
                    "internalType": "address"
                },
                {
                    "name": "tokenId",
                    "type": "uint256",
                    "indexed": true,
                    "internalType": "uint256"
                }
            ],
            "anonymous": false
        },
        {
            "type": "event",
            "name": "WhitelistMinter",
            "inputs": [
                {
                    "name": "minter",
                    "type": "address",
                    "indexed": true,
                    "internalType": "address"
                }
            ],
            "anonymous": false
        },
        {
            "type": "error",
            "name": "ERC721IncorrectOwner",
            "inputs": [
                {
                    "name": "sender",
                    "type": "address",
                    "internalType": "address"
                },
                {
                    "name": "tokenId",
                    "type": "uint256",
                    "internalType": "uint256"
                },
                {
                    "name": "owner",
                    "type": "address",
                    "internalType": "address"
                }
            ]
        },
        {
            "type": "error",
            "name": "ERC721InsufficientApproval",
            "inputs": [
                {
                    "name": "operator",
                    "type": "address",
                    "internalType": "address"
                },
                {
                    "name": "tokenId",
                    "type": "uint256",
                    "internalType": "uint256"
                }
            ]
        },
        {
            "type": "error",
            "name": "ERC721InvalidApprover",
            "inputs": [
                {
                    "name": "approver",
                    "type": "address",
                    "internalType": "address"
                }
            ]
        },
        {
            "type": "error",
            "name": "ERC721InvalidOperator",
            "inputs": [
                {
                    "name": "operator",
                    "type": "address",
                    "internalType": "address"
                }
            ]
        },
        {
            "type": "error",
            "name": "ERC721InvalidOwner",
            "inputs": [
                {
                    "name": "owner",
                    "type": "address",
                    "internalType": "address"
                }
            ]
        },
        {
            "type": "error",
            "name": "ERC721InvalidReceiver",
            "inputs": [
                {
                    "name": "receiver",
                    "type": "address",
                    "internalType": "address"
                }
            ]
        },
        {
            "type": "error",
            "name": "ERC721InvalidSender",
            "inputs": [
                {
                    "name": "sender",
                    "type": "address",
                    "internalType": "address"
                }
            ]
        },
        {
            "type": "error",
            "name": "ERC721NonexistentToken",
            "inputs": [
                {
                    "name": "tokenId",
                    "type": "uint256",
                    "internalType": "uint256"
                }
            ]
        },
        {
            "type": "error",
            "name": "NonExistentTokenURI",
            "inputs": []
        },
        {
            "type": "error",
            "name": "OwnableInvalidOwner",
            "inputs": [
                {
                    "name": "owner",
                    "type": "address",
                    "internalType": "address"
                }
            ]
        },
        {
            "type": "error",
            "name": "OwnableUnauthorizedAccount",
            "inputs": [
                {
                    "name": "account",
                    "type": "address",
                    "internalType": "address"
                }
            ]
        }
    ],
    "bytecode": {
        "object": "0x608060405234801561001057600080fd5b5060405161259438038061259483398101604081905261002f9161019e565b808383600061003e83826102ae565b50600161004b82826102ae565b5050506001600160a01b03811661007c57604051631e4fbdf760e01b81526000600482015260240160405180910390fd5b6100858161008e565b5050505061036d565b600680546001600160a01b038381166001600160a01b0319831681179093556040519116919082907f8be0079c531659141344cd1fd0a4f28419497f9722a3daafe3b4186f6b6457e090600090a35050565b634e487b7160e01b600052604160045260246000fd5b600082601f83011261010757600080fd5b81516001600160401b0380821115610121576101216100e0565b604051601f8301601f19908116603f01168101908282118183101715610149576101496100e0565b816040528381526020925086602085880101111561016657600080fd5b600091505b83821015610188578582018301518183018401529082019061016b565b6000602085830101528094505050505092915050565b6000806000606084860312156101b357600080fd5b83516001600160401b03808211156101ca57600080fd5b6101d6878388016100f6565b945060208601519150808211156101ec57600080fd5b506101f9868287016100f6565b604086015190935090506001600160a01b038116811461021857600080fd5b809150509250925092565b600181811c9082168061023757607f821691505b60208210810361025757634e487b7160e01b600052602260045260246000fd5b50919050565b601f8211156102a9576000816000526020600020601f850160051c810160208610156102865750805b601f850160051c820191505b818110156102a557828155600101610292565b5050505b505050565b81516001600160401b038111156102c7576102c76100e0565b6102db816102d58454610223565b8461025d565b602080601f83116001811461031057600084156102f85750858301515b600019600386901b1c1916600185901b1785556102a5565b600085815260208120601f198616915b8281101561033f57888601518255948401946001909101908401610320565b508582101561035d5787850151600019600388901b60f8161c191681555b5050505050600190811b01905550565b6122188061037c6000396000f3fe608060405234801561001057600080fd5b506004361061014c5760003560e01c806368856f67116100c35780639bb257ad1161007c5780639bb257ad146102ce578063a22cb465146102e1578063b88d4fde146102f4578063c87b56dd14610307578063e985e9c51461031a578063f2fde38b1461032d57600080fd5b806368856f671461026757806370a082311461027a578063715018a61461028d57806381ee5e09146102955780638da5cb5b146102b557806395d89b41146102c657600080fd5b80630d4c5fb2116101155780630d4c5fb2146101e557806323b872dd146101f85780633092afd51461020b5780633af32abf1461021e57806342842e0e146102415780636352211e1461025457600080fd5b80629a9b7b1461015157806301ffc9a71461016d57806306fdde0314610190578063081812fc146101a5578063095ea7b3146101d0575b600080fd5b61015a600a5481565b6040519081526020015b60405180910390f35b61018061017b3660046117a9565b610340565b6040519015158152602001610164565b610198610392565b604051610164919061181d565b6101b86101b3366004611830565b610424565b6040516001600160a01b039091168152602001610164565b6101e36101de366004611865565b61044d565b005b6101e36101f336600461193b565b61045c565b6101e361020636600461199a565b61088c565b6101e36102193660046119d6565b610911565b61018061022c3660046119d6565b60096020526000908152604090205460ff1681565b6101e361024f36600461199a565b610962565b6101b8610262366004611830565b610982565b61015a6102753660046119f1565b61098d565b61015a6102883660046119d6565b610b44565b6101e3610b8c565b61015a6102a3366004611830565b60076020526000908152604090205481565b6006546001600160a01b03166101b8565b610198610ba0565b6101e36102dc3660046119d6565b610baf565b6101e36102ef366004611ac2565b610c03565b6101e3610302366004611afe565b610c0e565b610198610315366004611830565b610c25565b610180610328366004611b7a565b610fa0565b6101e361033b3660046119d6565b610fce565b60006001600160e01b031982166380ac58cd60e01b148061037157506001600160e01b03198216635b5e139f60e01b145b8061038c57506301ffc9a760e01b6001600160e01b03198316145b92915050565b6060600080546103a190611bad565b80601f01602080910402602001604051908101604052809291908181526020018280546103cd90611bad565b801561041a5780601f106103ef5761010080835404028352916020019161041a565b820191906000526020600020905b8154815290600101906020018083116103fd57829003601f168201915b5050505050905090565b600061042f8261100c565b506000828152600460205260409020546001600160a01b031661038c565b610458828233611045565b5050565b3361046684610982565b6001600160a01b0316148061048a57503360009081526009602052604090205460ff165b6104f75760405162461bcd60e51b815260206004820152603360248201527f43616c6c6572206973206e6f742074686520746f6b656e206f776e6572206f72604482015272103a34329031b7b73a3930b1ba1037bbb732b960691b60648201526084015b60405180910390fd5b6000838152600860209081526040808320815160c0810183528154815260018201546001600160a01b031693810193909352600281018054919284019161053d90611bad565b80601f016020809104026020016040519081016040528092919081815260200182805461056990611bad565b80156105b65780601f1061058b576101008083540402835291602001916105b6565b820191906000526020600020905b81548152906001019060200180831161059957829003601f168201915b505050505081526020016003820180546105cf90611bad565b80601f01602080910402602001604051908101604052809291908181526020018280546105fb90611bad565b80156106485780601f1061061d57610100808354040283529160200191610648565b820191906000526020600020905b81548152906001019060200180831161062b57829003601f168201915b5050505050815260200160048201805461066190611bad565b80601f016020809104026020016040519081016040528092919081815260200182805461068d90611bad565b80156106da5780601f106106af576101008083540402835291602001916106da565b820191906000526020600020905b8154815290600101906020018083116106bd57829003601f168201915b505050505081526020016005820180546106f390611bad565b80601f016020809104026020016040519081016040528092919081815260200182805461071f90611bad565b801561076c5780601f106107415761010080835404028352916020019161076c565b820191906000526020600020905b81548152906001019060200180831161074f57829003601f168201915b50505050508152505090506000600181111561078a5761078a611be7565b82600181111561079c5761079c611be7565b036107ec5780516020820151604080840151905187927f595747e7f228a851268db2586ad8611651b09bec01d8ad30d446983767b66e81926107df928990611bfd565b60405180910390a361087d565b600182600181111561080057610800611be7565b03610840578060000151847f299aad4bd0de79fecfce5a849e59221a503c3677a763f7948ffa1e22f704ab1b8360400151866040516107df929190611c3d565b60405162461bcd60e51b8152602060048201526012602482015271496e76616c696420746f6b656e207479706560701b60448201526064016104ee565b61088684611052565b50505050565b6001600160a01b0382166108b657604051633250574960e11b8152600060048201526024016104ee565b60006108c383833361108d565b9050836001600160a01b0316816001600160a01b031614610886576040516364283d7b60e01b81526001600160a01b03808616600483015260248201849052821660448201526064016104ee565b610919611186565b6001600160a01b038116600081815260096020526040808220805460ff19169055517f2f91b591fc56ac0917953ad01ec225524ee5ef0555213e4c8a9d8c9728ee7ffb9190a250565b61097d83838360405180602001604052806000815250610c0e565b505050565b600061038c8261100c565b3360009081526009602052604081205460ff166109ec5760405162461bcd60e51b815260206004820152601960248201527f43616c6c6572206973206e6f742077686974656c69737465640000000000000060448201526064016104ee565b60008281526007602052604090205415610a0557600080fd5b6000600a60008154610a1690611c81565b91829055509050610a2789826111b3565b6040805160c0810182528981526001600160a01b038b811660208084019182528385018c8152606085018c9052608085018b905260a085018a9052600087815260089092529490208351815590516001820180546001600160a01b031916919093161790915591519091906002820190610aa19082611cea565b5060608201516003820190610ab69082611cea565b5060808201516004820190610acb9082611cea565b5060a08201516005820190610ae09082611cea565b5050506000838152600760205260409081902082905551889082907f0d45bd16183601f8115532da83149cf09d69e7ddb8a12f801e75ea0917a4df8290610b30908d908c908c908c908c90611daa565b60405180910390a398975050505050505050565b60006001600160a01b038216610b70576040516322718ad960e21b8152600060048201526024016104ee565b506001600160a01b031660009081526003602052604090205490565b610b94611186565b610b9e60006111cd565b565b6060600180546103a190611bad565b610bb7611186565b6001600160a01b038116600081815260096020526040808220805460ff19166001179055517f09094208b043720577503c2a031522b7df2358c7e7c0373ee7b1260db2bef4c69190a250565b61045833838361121f565b610c1984848461088c565b610886848484846112be565b60606000610c3283610982565b6001600160a01b031603610c595760405163d872946b60e01b815260040160405180910390fd5b6000828152600860209081526040808320815160c0810183528154815260018201546001600160a01b0316938101939093526002810180549192840191610c9f90611bad565b80601f0160208091040260200160405190810160405280929190818152602001828054610ccb90611bad565b8015610d185780601f10610ced57610100808354040283529160200191610d18565b820191906000526020600020905b815481529060010190602001808311610cfb57829003601f168201915b50505050508152602001600382018054610d3190611bad565b80601f0160208091040260200160405190810160405280929190818152602001828054610d5d90611bad565b8015610daa5780601f10610d7f57610100808354040283529160200191610daa565b820191906000526020600020905b815481529060010190602001808311610d8d57829003601f168201915b50505050508152602001600482018054610dc390611bad565b80601f0160208091040260200160405190810160405280929190818152602001828054610def90611bad565b8015610e3c5780601f10610e1157610100808354040283529160200191610e3c565b820191906000526020600020905b815481529060010190602001808311610e1f57829003601f168201915b50505050508152602001600582018054610e5590611bad565b80601f0160208091040260200160405190810160405280929190818152602001828054610e8190611bad565b8015610ece5780601f10610ea357610100808354040283529160200191610ece565b820191906000526020600020905b815481529060010190602001808311610eb157829003601f168201915b505050505081525050905060008160800151604051602001610ef09190611e30565b6040516020818303038152906040529050600082608001518360400151604051602001610f1e929190611e64565b60405160208183030381529060405290506000610f73828560a0015185876080015188604001518960600151604051602001610f5f96959493929190611f1e565b6040516020818303038152906040526113e7565b905080604051602001610f8691906120c1565b604051602081830303815290604052945050505050919050565b6001600160a01b03918216600090815260056020908152604080832093909416825291909152205460ff1690565b610fd6611186565b6001600160a01b03811661100057604051631e4fbdf760e01b8152600060048201526024016104ee565b611009816111cd565b50565b6000818152600260205260408120546001600160a01b03168061038c57604051637e27328960e01b8152600481018490526024016104ee565b61097d8383836001611547565b6000611061600083600061108d565b90506001600160a01b03811661045857604051637e27328960e01b8152600481018390526024016104ee565b6000828152600260205260408120546001600160a01b03908116908316156110ba576110ba81848661164d565b6001600160a01b038116156110f8576110d7600085600080611547565b6001600160a01b038116600090815260036020526040902080546000190190555b6001600160a01b03851615611127576001600160a01b0385166000908152600360205260409020805460010190555b60008481526002602052604080822080546001600160a01b0319166001600160a01b0389811691821790925591518793918516917fddf252ad1be2c89b69c2b068fc378daa952ba7f163c4a11628f55a4df523b3ef91a4949350505050565b6006546001600160a01b03163314610b9e5760405163118cdaa760e01b81523360048201526024016104ee565b6104588282604051806020016040528060008152506116b1565b600680546001600160a01b038381166001600160a01b0319831681179093556040519116919082907f8be0079c531659141344cd1fd0a4f28419497f9722a3daafe3b4186f6b6457e090600090a35050565b6001600160a01b03821661125157604051630b61174360e31b81526001600160a01b03831660048201526024016104ee565b6001600160a01b03838116600081815260056020908152604080832094871680845294825291829020805460ff191686151590811790915591519182527f17307eab39ab6107e8899845ad3d59bd9653f200f220920489ca2b5937696c31910160405180910390a3505050565b6001600160a01b0383163b1561088657604051630a85bd0160e11b81526001600160a01b0384169063150b7a0290611300903390889087908790600401612106565b6020604051808303816000875af192505050801561133b575060408051601f3d908101601f1916820190925261133891810190612139565b60015b6113a4573d808015611369576040519150601f19603f3d011682016040523d82523d6000602084013e61136e565b606091505b50805160000361139c57604051633250574960e11b81526001600160a01b03851660048201526024016104ee565b805181602001fd5b6001600160e01b03198116630a85bd0160e11b146113e057604051633250574960e11b81526001600160a01b03851660048201526024016104ee565b5050505050565b6060815160000361140657505060408051602081019091526000815290565b60006040518060600160405280604081526020016121a360409139905060006003845160026114359190612156565b61143f9190612169565b61144a90600461218b565b67ffffffffffffffff8111156114625761146261188f565b6040519080825280601f01601f19166020018201604052801561148c576020820181803683370190505b50905060018201602082018586518701602081018051600082525b82841015611502576003840193508351603f8160121c168701518653600186019550603f81600c1c168701518653600186019550603f8160061c168701518653600186019550603f81168701518653506001850194506114a7565b905250508551600390066001811461152157600281146115345761153c565b603d6001830353603d600283035361153c565b603d60018303535b509195945050505050565b808061155b57506001600160a01b03821615155b1561161d57600061156b8461100c565b90506001600160a01b038316158015906115975750826001600160a01b0316816001600160a01b031614155b80156115aa57506115a88184610fa0565b155b156115d35760405163a9fbf51f60e01b81526001600160a01b03841660048201526024016104ee565b811561161b5783856001600160a01b0316826001600160a01b03167f8c5be1e5ebec7d5bd14f71427d1e84f3dd0314c0f7b2291e5b200ac8c7c3b92560405160405180910390a45b505b5050600090815260046020526040902080546001600160a01b0319166001600160a01b0392909216919091179055565b6116588383836116c8565b61097d576001600160a01b03831661168657604051637e27328960e01b8152600481018290526024016104ee565b60405163177e802f60e01b81526001600160a01b0383166004820152602481018290526044016104ee565b6116bb838361172e565b61097d60008484846112be565b60006001600160a01b038316158015906117265750826001600160a01b0316846001600160a01b0316148061170257506117028484610fa0565b8061172657506000828152600460205260409020546001600160a01b038481169116145b949350505050565b6001600160a01b03821661175857604051633250574960e11b8152600060048201526024016104ee565b60006117668383600061108d565b90506001600160a01b0381161561097d576040516339e3563760e11b8152600060048201526024016104ee565b6001600160e01b03198116811461100957600080fd5b6000602082840312156117bb57600080fd5b81356117c681611793565b9392505050565b60005b838110156117e85781810151838201526020016117d0565b50506000910152565b600081518084526118098160208601602086016117cd565b601f01601f19169290920160200192915050565b6020815260006117c660208301846117f1565b60006020828403121561184257600080fd5b5035919050565b80356001600160a01b038116811461186057600080fd5b919050565b6000806040838503121561187857600080fd5b61188183611849565b946020939093013593505050565b634e487b7160e01b600052604160045260246000fd5b600067ffffffffffffffff808411156118c0576118c061188f565b604051601f8501601f19908116603f011681019082821181831017156118e8576118e861188f565b8160405280935085815286868601111561190157600080fd5b858560208301376000602087830101525050509392505050565b600082601f83011261192c57600080fd5b6117c6838335602085016118a5565b60008060006060848603121561195057600080fd5b83359250602084013567ffffffffffffffff81111561196e57600080fd5b61197a8682870161191b565b92505060408401356002811061198f57600080fd5b809150509250925092565b6000806000606084860312156119af57600080fd5b6119b884611849565b92506119c660208501611849565b9150604084013590509250925092565b6000602082840312156119e857600080fd5b6117c682611849565b600080600080600080600060e0888a031215611a0c57600080fd5b611a1588611849565b965060208801359550604088013567ffffffffffffffff80821115611a3957600080fd5b611a458b838c0161191b565b965060608a0135915080821115611a5b57600080fd5b611a678b838c0161191b565b955060808a0135915080821115611a7d57600080fd5b611a898b838c0161191b565b945060a08a0135915080821115611a9f57600080fd5b50611aac8a828b0161191b565b92505060c0880135905092959891949750929550565b60008060408385031215611ad557600080fd5b611ade83611849565b915060208301358015158114611af357600080fd5b809150509250929050565b60008060008060808587031215611b1457600080fd5b611b1d85611849565b9350611b2b60208601611849565b925060408501359150606085013567ffffffffffffffff811115611b4e57600080fd5b8501601f81018713611b5f57600080fd5b611b6e878235602084016118a5565b91505092959194509250565b60008060408385031215611b8d57600080fd5b611b9683611849565b9150611ba460208401611849565b90509250929050565b600181811c90821680611bc157607f821691505b602082108103611be157634e487b7160e01b600052602260045260246000fd5b50919050565b634e487b7160e01b600052602160045260246000fd5b6001600160a01b0384168152606060208201819052600090611c21908301856117f1565b8281036040840152611c3381856117f1565b9695505050505050565b604081526000611c5060408301856117f1565b8281036020840152611c6281856117f1565b95945050505050565b634e487b7160e01b600052601160045260246000fd5b600060018201611c9357611c93611c6b565b5060010190565b601f82111561097d576000816000526020600020601f850160051c81016020861015611cc35750805b601f850160051c820191505b81811015611ce257828155600101611ccf565b505050505050565b815167ffffffffffffffff811115611d0457611d0461188f565b611d1881611d128454611bad565b84611c9a565b602080601f831160018114611d4d5760008415611d355750858301515b600019600386901b1c1916600185901b178555611ce2565b600085815260208120601f198616915b82811015611d7c57888601518255948401946001909101908401611d5d565b5085821015611d9a5787850151600019600388901b60f8161c191681555b5050505050600190811b01905550565b6001600160a01b038616815260a060208201819052600090611dce908301876117f1565b8281036040840152611de081876117f1565b90508281036060840152611df481866117f1565b90508281036080840152611e0881856117f1565b98975050505050505050565b60008151611e268185602086016117cd565b9290920192915050565b6b02a32b632b837b93a103a37960a51b815260008251611e5781600c8501602087016117cd565b91909101600c0192915050565b7f416c6c6f777320796f7520746f20706f7374206f6e63652066726f6d20000000815260008351611e9c81601d8501602088016117cd565b80830190507f2773206163636f756e7420696620796f757220706f7374207061737365732074601d8201527f686520666f6c6c6f77696e6720636865636b20627920746865204c4c4d3a2000603d820152602760f81b80605c8301528451611f0b81605d8501602089016117cd565b605d920191820152605e01949350505050565b703d913232b9b1b934b83a34b7b7111d101160791b81528651600090611f4b816011850160208c016117cd565b6c1116101134b6b0b3b2911d101160991b6011918401918201528751611f7881601e840160208c016117cd565b6b111610113730b6b2911d101160a11b601e92909101918201528651611fa581602a840160208b016117cd565b7f222c202261747472696275746573223a205b7b2274726169745f74797065223a602a92909101918201527f20225820557365726e616d65222c202276616c7565223a202200000000000000604a8201528551612009816063840160208a016117cd565b6120b36120a361209d61206461205e6063868801017f227d2c207b2274726169745f74797065223a20224c4c4d20736166656775617281526d32111610113b30b63ab2911d101160911b6020820152602e0190565b8a611e14565b7f227d2c207b2274726169745f74797065223a202258204e616d65222c20227661815266363ab2911d101160c91b602082015260270190565b87611e14565b63227d5d7d60e01b815260040190565b9a9950505050505050505050565b7f646174613a6170706c69636174696f6e2f6a736f6e3b6261736536342c0000008152600082516120f981601d8501602087016117cd565b91909101601d0192915050565b6001600160a01b0385811682528416602082015260408101839052608060608201819052600090611c33908301846117f1565b60006020828403121561214b57600080fd5b81516117c681611793565b8082018082111561038c5761038c611c6b565b60008261218657634e487b7160e01b600052601260045260246000fd5b500490565b808202811582820484141761038c5761038c611c6b56fe4142434445464748494a4b4c4d4e4f505152535455565758595a6162636465666768696a6b6c6d6e6f707172737475767778797a303132333435363738392b2fa26469706673582212205d58437db157d681f14ea3c69a0a95b855a6574aaa6174d1c150ac757c7e069664736f6c63430008190033",
        "linkReferences": {}
    },
    "methodIdentifiers": {
        "approve(address,uint256)": "095ea7b3",
        "balanceOf(address)": "70a08231",
        "currentTokenId()": "009a9b7b",
        "getApproved(uint256)": "081812fc",
        "isApprovedForAll(address,address)": "e985e9c5",
        "isWhitelisted(address)": "3af32abf",
        "mintTo(address,uint256,string,string,string,string,bytes32)": "68856f67",
        "name()": "06fdde03",
        "nftIdMap(bytes32)": "81ee5e09",
        "owner()": "8da5cb5b",
        "ownerOf(uint256)": "6352211e",
        "redeem(uint256,string,uint8)": "0d4c5fb2",
        "removeMinter(address)": "3092afd5",
        "renounceOwnership()": "715018a6",
        "safeTransferFrom(address,address,uint256)": "42842e0e",
        "safeTransferFrom(address,address,uint256,bytes)": "b88d4fde",
        "setApprovalForAll(address,bool)": "a22cb465",
        "supportsInterface(bytes4)": "01ffc9a7",
        "symbol()": "95d89b41",
        "tokenURI(uint256)": "c87b56dd",
        "transferFrom(address,address,uint256)": "23b872dd",
        "transferOwnership(address)": "f2fde38b",
        "whitelistMinter(address)": "9bb257ad"
    },
    "id": 38
}