{
    "abi": [
        {
            "type": "constructor",
            "inputs": [
                {
                    "name": "_nft",
                    "type": "address",
                    "internalType": "address"
                }
            ],
            "stateMutability": "nonpayable"
        },
        {
            "type": "function",
            "name": "redeem",
            "inputs": [
                {
                    "name": "tokenIds",
                    "type": "uint256[]",
                    "internalType": "uint256[]"
                },
                {
                    "name": "content",
                    "type": "string",
                    "internalType": "string"
                }
            ],
            "outputs": [],
            "stateMutability": "nonpayable"
        }
    ],
    "bytecode": {
        "object": "0x6080604052348015600f57600080fd5b50604051610353380380610353833981016040819052602c916050565b600080546001600160a01b0319166001600160a01b0392909216919091179055607e565b600060208284031215606157600080fd5b81516001600160a01b0381168114607757600080fd5b9392505050565b6102c68061008d6000396000f3fe608060405234801561001057600080fd5b506004361061002b5760003560e01c8063dc89605914610030575b600080fd5b61004361003e3660046100f5565b610045565b005b60005b828110156100d9576000546001600160a01b0316630d4c5fb2858584818110610073576100736101fe565b905060200201358460006040518463ffffffff1660e01b815260040161009b93929190610214565b600060405180830381600087803b1580156100b557600080fd5b505af11580156100c9573d6000803e3d6000fd5b5050600190920191506100489050565b50505050565b634e487b7160e01b600052604160045260246000fd5b60008060006040848603121561010a57600080fd5b833567ffffffffffffffff8082111561012257600080fd5b818601915086601f83011261013657600080fd5b81358181111561014557600080fd5b602088818360051b860101111561015b57600080fd5b80840196508195508088013593508284111561017657600080fd5b838801935088601f85011261018a57600080fd5b833591508282111561019e5761019e6100df565b604051601f8301601f19908116603f011681019084821181831017156101c6576101c66100df565b816040528381528a838588010111156101de57600080fd5b838387018483013760008385830101528096505050505050509250925092565b634e487b7160e01b600052603260045260246000fd5b8381526000602060606020840152845180606085015260005b818110156102495786810183015185820160800152820161022d565b506000608082860101526080601f19601f830116850101925050506002831061028257634e487b7160e01b600052602160045260246000fd5b82604083015294935050505056fea2646970667358221220fe0257ddcc60ab062b7614dd289e347ea8bb8200cd27eec47bd26d30cc26963e64736f6c63430008190033",
        "linkReferences": {}
    },
    "methodIdentifiers": {
        "redeem(uint256[],string)": "dc896059"
    },
    "id": 34
}